:020000040000FA
:060000000A128A110E280D
:10000800FE00030EF2000408F3000A08F4000A12C6
:100018008A1594280A128A1111280A128A11FC27B3
:100028000A128A11E800E501E601E701F701F80183
:1000380083010A128A15482B831203132A08803970
:10004800AF002F08B4002A08AF002F07B00030080F
:10005800BA00A91F3028312832283A143A0803195F
:100068003628372846283A0A031D3B283C284428C6
:100078000030AA000030A9000030A8000030A70016
:10008800A9174E280030AA000030A9000030A800A7
:100098000030A7002E088039AF002F08B4062E08BC
:1000A800AF002F07B0003008B500AD1F5C285D28F1
:1000B8005E28351435080319622863287228350A22
:1000C800031D6728682870280030AE000030AD0096
:1000D8000030AC000030AB00AD177A280030AE001D
:1000E8000030AD000030AC000030AB00350803191B
:1000F8007E287F2884283A08031D832884288D2891
:100108000030AA000030A9000030A8000030A70085
:10011800802B2708AF002F08F5002D080A128A1136
:10012800CD270A128A11760883120313C0007508B6
:10013800BF003F08AF00B001B101B2013208B900F9
:100148003108B8003008B7002F08B6004008AF00E3
:10015800B001B101B2013208BE003108BD0030085B
:10016800BC002F08BB002808AF002F08F5002C089A
:100178000A128A11CD270A128A11760883120313EC
:10018800C0007508BF003F08AF00B001B101B2015F
:100198002F08B607300803110318013E0319D528A4
:1001A800B707310803110318013E0319DC28B80703
:1001B800320803110318013E0319E328B907400860
:1001C800AF00B001B101B2012F08BB07300803111D
:1001D8000318013E0319F128BC073108031103185D
:1001E800013E0319F828BD07320803110318013E20
:1001F8000319FF28BE072908AF002F08F5002B08B0
:100208000A128A11CD270A128A117608831203135B
:10021800C0007508BF003F08AF00B001B101B201CE
:100228002F08B607300803110318013E03191D29CA
:10023800B707310803110318013E03192429B80729
:10024800320803110318013E03192B29B907400886
:10025800AF00B001B101B2012F08BB07300803118C
:100268000318013E03193929BC0731080311031883
:10027800013E03194029BD07320803110318013E46
:1002880003194729BE070830AF000310B60DB70D94
:10029800B80DB90DAF0B49292808AF002F08F50094
:1002A8002B080A128A11CD270A128A11760883129E
:1002B8000313C0007508BF003F08AF004008B00036
:1002C800B101B2012F08B607300803110318013E27
:1002D80003196F29B707310803110318013E0319E1
:1002E8007629B807320803110318013E03197D293E
:1002F800B9072708AF002F08F5002C080A128A1141
:10030800CD270A128A11760883120313C0007508D4
:10031800BF003F08AF004008B000B101B2012F088C
:10032800B607300803110318013E03199C29B707C3
:10033800310803110318013E0319A329B80732082D
:1003480003110318013E0319AA29B9070830AF00A1
:100358000310B60DB70DB80DB90DAF0BAC292708B2
:10036800AF002F08F5002B080A128A11CD270A12B0
:100378008A11760883120313C0007508BF003F086E
:10038800AF004008B000B101B2012F08B60730082D
:1003980003110318013E0319D229B70731080311C5
:1003A8000318013E0319D929B807320803110318A5
:1003B800013E0319E029B9072808AF002F08F50006
:1003C8002D080A128A11CD270A128A11760883127B
:1003D8000313C0007508BF003F08AF004008B00015
:1003E800B101B2012F08BB07300803110318013E01
:1003F8000319FF29BC07310803110318013E03192B
:10040800062ABD07320803110318013E03190D2AF5
:10041800BE072908AF002F08F5002C080A128A1118
:10042800CD270A128A11760883120313C0007508B3
:10043800BF003F08AF004008B000B101B2012F086B
:10044800BB07300803110318013E03192C2ABC0707
:10045800310803110318013E0319332ABD07320876
:1004680003110318013E03193A2ABE072908AF00F1
:100478002F08F5002D080A128A11CD270A128A11B1
:10048800760883120313C0007508BF003F08AF0049
:100498004008B000B101B20108300310AF0DB00D33
:1004A800B10DB20DFF3E031D512A2F08BB073008BE
:1004B80003110318013E0319622ABC07310803110E
:1004C8000318013E0319692ABD07320803110318EE
:1004D800013E0319702ABE073608AF003708B0007E
:1004E8003808B1003908B20018300310B20CB10C4A
:1004F800B00CAF0CFF3E031D792A2F08BB0730084C
:1005080003110318013E03198A2ABC073108031195
:100518000318013E0319912ABD0732080311031875
:10052800013E0319982ABE070830AF000310B60D24
:10053800B70DB80DB90DAF0B9A2A3A083507AF00B9
:10054800B001B00D2F08823EBF0030080318013EED
:10055800FF3EC000CC2A0130AF000310BB0DBC0D1C
:10056800BD0DBE0DAF0BB12AB91FBB2ABC2ABD2ACF
:100578003B140130AF000310B60DB70DB80DB90D1F
:10058800AF0BBF2AFF30BF070318C00AFF30C007F0
:10059800BD1FCF2AD02AAF2AB501B91FD42AD52A20
:1005A800F12AFF303605AF00FF303705B000FF30C5
:1005B8003805B1007F303905B20032083104300403
:1005C8002F040319E82AE92AEC2AB501B50AF12A09
:1005D8003B1CEF2AF02AF12AE92A35080319F52AE3
:1005E800F62A272B0130BB07003003180130BC075F
:1005F800003003180130BD07003003180130BE0772
:100608003E1C072B082B272B3B08AF003C08B000EB
:100618003D08B1003E08B2000130B300320DB20C03
:10062800B10CB00CAF0CB30B122B3208BE00310862
:10063800BD003008BC002F08BB000130BF070318FD
:10064800C00A0030C0074008803AFF0080307F02AF
:10065800031D302BFF303F02031C332B342B3F2B61
:100668007F3083120313BE008030BD000030BC0011
:100678000030BB00742B831203134008803AFF003C
:1006880080307F02031D4A2B01303F0203184D2B97
:100698004E2B5A2B003083120313BE000030BD00CE
:1006A8000030BC000030BB00B401742B831203136C
:1006B8003F08AF002F08BA00FF30BB05FF30BC056C
:1006C8007F30BD050030BE053A1C6B2B6C2B6D2BA3
:1006D800BD173A08AF0003102F0CB0003008BE0059
:1006E8003408AF002F08BE043E08AA003D08A90040
:1006F8003C08A8003B08A7000800831203134F0812
:10070800AE004E08AD004D08AC004C08AB004230BE
:10071800AA00C830A9000030A8000030A7000A12BB
:100728008A1120200A128A11831203132A08C4008E
:100738002908C3002808C2002708C1000A128A1520
:1007480010220A128A11831203134208D8004108A2
:10075800D7000A30A0000030A1005808A3005708AD
:10076800A2000A128A15D4200A128A1183120313CE
:100778002108D2002008D1000A30A0000030A100D2
:100788005808A3005708A2000A128A152F210A1236
:100798008A11831203132108D8002008D7000A30D1
:1007A800A0000030A1005808A3005708A2000A12B0
:1007B8008A15D4200A128A11831203132108D4003F
:1007C8002008D3000A30A0000030A1005808A30078
:1007D8005708A2000A128A152F210A128A118312B9
:1007E80003132108D6002008D500A42C0730D00018
:1007F8005008A20002300A168A11B1270A128A117B
:1008080010300A168A11D7270A128A11C92C073004
:10081800D0005008A20002300A168A11B1270A1225
:100828008A1108300A168A11D7270A128A11C92C88
:100838000730D0005008A20002300A168A11B127EA
:100848000A128A110C300A168A11D7270A128A113D
:10085800C92C0730D0005008A20002300A168A11AD
:10086800B1270A128A1112300A168A11D7270A12DA
:100878008A11C92C0730D0005008A20002300A168D
:100888008A11B1270A128A1114300A168A11D72739
:100898000A128A11C92C0730D0005008A200023071
:1008A8000A168A11B1270A128A1116300A168A11F5
:1008B800D7270A128A11C92C0730D0005008A20085
:1008C80002300A168A11B1270A128A1118300A163C
:1008D8008A11D7270A128A11C92C0730D00050086C
:1008E800A20002300A168A11B1270A128A111A3098
:1008F8000A168A11D7270A128A11C92C0730D00084
:100908005008A20002300A168A11B1270A128A1169
:100918001C300A168A11D7270A128A11C92C0730E7
:10092800D0005008A20002300A168A11B1270A1214
:100938008A111E300A168A11D7270A128A11C92C61
:100948005608003A0319A92CC92C5508003A03196E
:10095800FA2B013A03190B2C033A03191C2C013A00
:1009680003192D2C073A03193E2C013A03194F2C71
:10097800033A0319602C013A0319712C0F3A031931
:10098800822C013A0319932CC92C0E300A168A11AD
:10099800D7270A128A11162D10300A168A11D7275E
:1009A8000A128A11832D08300A168A11D7270A12CB
:1009B8008A11832D0C300A168A11D7270A128A1138
:1009C800832D12300A168A11D7270A128A11832D0D
:1009D80014300A168A11D7270A128A11832D163065
:1009E8000A168A11D7270A128A11832D18300A1677
:1009F8008A11D7270A128A11832D1A300A168A11EA
:100A0800D7270A128A11832D1C300A168A11D72774
:100A18000A128A11832D1E300A168A11D7270A1244
:100A28008A11832D831203135408003A03191D2DCC
:100A3800832D5308003A0319D02C013A0319D72CF7
:100A4800033A0319DE2C013A0319E52C073A031976
:100A5800EC2C013A0319F32C033A0319FA2C013A46
:100A68000319012D0F3A0319082D013A03190F2D07
:100A7800832D10300A168A11D7270A128A11AA2D37
:100A880008300A168A11D7270A128A11AA2D0C30A3
:100A98000A168A11D7270A128A11AA2D12300A16A5
:100AA8008A11D7270A128A11AA2D14300A168A1118
:100AB800D7270A128A11AA2D16300A168A11D727A3
:100AC8000A128A11AA2D18300A168A11D7270A1273
:100AD8008A11AA2D1A300A168A11D7270A128A11E2
:100AE800AA2D1C300A168A11D7270A128A11AA2D94
:100AF8001E300A168A11D7270A128A11AA2D8312C4
:100B080003135208003A03198A2DAA2D5108003AF6
:100B180003193D2D013A0319442D033A03194B2DAE
:100B2800013A0319522D073A0319592D013A0319AD
:100B3800602D033A0319672D013A03196E2D0F3AF8
:100B48000319752D013A03197C2DAA2D20300A1698
:100B58008A11D7270A128A110800831203134F0833
:100B6800AE004E08AD004D08AC004C08AB0042305A
:100B7800AA00C830A9000030A8000030A7000A1257
:100B88008A1120200A128A11831203132A08C4002A
:100B98002908C3002808C2002708C1000A128A15BC
:100BA80010220A128A11831203134208D70041083F
:100BB800D6000A30A0000030A1005708A30056084C
:100BC800A2000A128A15D4200A128A11831203136A
:100BD8002108D1002008D0000A30A0000030A10070
:100BE8005708A3005608A2000A128A152F210A12D4
:100BF8008A11831203132108D7002008D6000A306F
:100C0800A0000030A1005708A3005608A2000A124D
:100C18008A15D4200A128A11831203132108D300DB
:100C28002008D2000A30A0000030A1005708A30015
:100C38005608A2000A128A152F210A128A11831255
:100C480003132108D5002008D400C02EA201A20A4F
:100C580002300A168A11B1270A128A1110300A16B0
:100C68008A11D7270A128A11E52EA201A20A023098
:100C78000A168A11B1270A128A1108300A168A112F
:100C8800D7270A128A11E52EA201A20A02300A16F3
:100C98008A11B1270A128A110C300A168A11D7272D
:100CA8000A128A11E52EA201A20A02300A168A1136
:100CB800B1270A128A1112300A168A11D7270A1286
:100CC8008A11E52EA201A20A02300A168A11B1275A
:100CD8000A128A1114300A168A11D7270A128A11A1
:100CE800E52EA201A20A02300A168A11B1270A12B9
:100CF8008A1116300A168A11D7270A128A11E52E88
:100D0800A201A20A02300A168A11B1270A128A1110
:100D180018300A168A11D7270A128A11E52EA2015D
:100D2800A20A02300A168A11B1270A128A111A3049
:100D38000A168A11D7270A128A11E52EA201A20AD9
:100D480002300A168A11B1270A128A111C300A16B3
:100D58008A11D7270A128A11E52EA201A20A0230A7
:100D68000A168A11B1270A128A111E300A168A1128
:100D7800D7270A128A11E52E5508003A0319C52EFD
:100D8800E52E5408003A03192A2E013A0319392E80
:100D9800033A0319482E013A0319572E073A031943
:100DA800662E013A0319752E033A0319842E013A67
:100DB8000319932E0F3A0319A22E013A0319B12EE3
:100DC800E52E0E300A168A11D7270A128A11322FF9
:100DD80010300A168A11D7270A128A119F2F083055
:100DE8000A168A11D7270A128A119F2F0C300A1661
:100DF8008A11D7270A128A119F2F12300A168A11D0
:100E0800D7270A128A119F2F14300A168A11D7275A
:100E18000A128A119F2F16300A168A11D7270A122A
:100E28008A119F2F18300A168A11D7270A128A1199
:100E38009F2F1A300A168A11D7270A128A119F2F54
:100E48001C300A168A11D7270A128A119F2F1E30C2
:100E58000A168A11D7270A128A119F2F83120313A1
:100E68005308003A0319392F9F2F5208003A0319E3
:100E7800EC2E013A0319F32E033A0319FA2E013A1C
:100E88000319012F073A0319082F013A03190F2FE5
:100E9800033A0319162F013A03191D2F0F3A0319A4
:100EA800242F013A03192B2F9F2F10300A168A116D
:100EB800D7270A128A11C62F08300A168A11D7278F
:100EC8000A128A11C62F0C300A168A11D7270A125D
:100ED8008A11C62F12300A168A11D7270A128A11C8
:100EE800C62F14300A168A11D7270A128A11C62F5C
:100EF80016300A168A11D7270A128A11C62F1830F7
:100F08000A168A11D7270A128A11C62F1A300A160A
:100F18008A11D7270A128A11C62F1C300A168A117D
:100F2800D7270A128A11C62F1E300A168A11D72708
:100F38000A128A11C62F831203135108003A0319A3
:100F4800A62FC62F5008003A0319592F013A031942
:100F5800602F033A0319672F013A03196E2F073AD6
:100F68000319752F013A03197C2F033A0319832FAC
:100F7800013A03198A2F0F3A0319912F013A0319DD
:100F8800982FC62F20300A168A11D7270A128A11DD
:100F9800080083120313A600A201A3017508A0008C
:100FA800A1012008A4002108A500261CDC2FDD2FA4
:100FB800E32F2408A2070318A30A2508A307013072
:100FC8000310A40DA50DFF3E031DE42F0310A60C6E
:100FD8002608031DF02FF12FD92F2308F600220829
:100FE800F50008000030831203138C1A0130080042
:020FF8009B3428
:101014000C280000831203138C1E112812280B289D
:101024001A08F500F6017508A0007608A10020084A
:101034000800143083120313A3007930A200A20B1A
:101044002128A30B212830300A168A118D270A1271
:101054008A1530300A168A1103270A128A1530308D
:101064000A168A1103270A128A1538300A168A11B9
:101074008D270A128A1510300A168A1145270A127A
:101084008A1501300A168A1145270A128A15063074
:101094000A168A1145270A128A150C300A168A1173
:1010A40045270A128A150800F500751C5A285B2882
:1010B4005F28831203130514622883120313051097
:1010C400F51C652866286828851469288510751D0F
:1010D4006C286D286F28051570280511F51D7328D7
:1010E40074287628851577288511751E7A287B281B
:1010F4007D2805167E280512F51E8128822884285D
:10110400851685288512751F882889288B28051738
:101114008C280513F51F8F2890289228851793286B
:1011240085130800831203130C1F99289A28C328D7
:101134000C13B1281E08F0007008E7001F08C3391B
:1011440030389F00F801F80AC1281E08F000700822
:10115400E6001F08C33934389F00F801C128780815
:10116400F000F1017108003A0319B928C128700888
:10117400003A03199C28013A0319A728C1289F148F
:10118400CB280C1EC628C728CA28F701F70ACB2883
:10119400000074088A0073088400720E8300FE0E37
:1011A4007E0E090083120313A501A31FDA28DB288E
:1011B400E228A209A309A20A0319A30AA501A50A00
:1011C400A11FE528E628EB28A009A109A00A031914
:1011D400A10A200821040319F028F1282029A401D8
:1011E400A40AFF2801300310A00DA10DFF3E031D2A
:1011F400F5280130F5007508A407A11F0229032969
:10120400F42821082302031D092920082202031CB3
:101214000C290D2913292008A2022108031CA30369
:10122400A30201300310A10CA00CFF3E031D1429DE
:101234000130A402031D1F292029032925080319AD
:10124400242925292A29A209A309A20A0319A30AE0
:101254002308A1002208A000080083120313A5019B
:10126400A11F352936293D29A009A109A00A03197E
:10127400A10AA501A50AA31F402941294A29A209B7
:10128400A309A20A0319A30A0130F5007508A506EB
:10129400A601A701200821040319512952298929EB
:1012A400A401A40A602901300310A00DA10DFF3E82
:1012B400031D56290130F5007508A407A11F6329F1
:1012C4006429552901300310A60DA70DFF3E031D07
:1012D400652921082302031D712920082202031C09
:1012E400742975297C292008A2022108031CA30360
:1012F400A302261401300310A10CA00CFF3E031D11
:101304007D290130A402031D88298929642925081F
:1013140003198D298E299329A609A709A60A031959
:10132400A70A2708A1002608A000080083120313B7
:10133400A000831603139F01CF29C1309F00082A00
:10134400C5309F00082AC9309F00082ACD309F006D
:10135400082AD1309F00082AD5309F00082AD930A6
:101364009F00082ADD309F00082AE1309F00082AE8
:10137400E5309F00082AE9309F00082AED309F00DD
:10138400082AF1309F00082AF5309F00082AF93016
:101394009F00082AFD309F00082A831203132008A7
:1013A400F500F6017608003A0319D9299F29750832
:1013B400013A0319A229033A0319A529013A031989
:1013C400A829073A0319AB29013A0319AE29033AAC
:1013D4000319B129013A0319B4290F3A0319B7299A
:1013E400013A0319BA29033A0319BD29013A031929
:1013F400C029073A0319C329013A0319C629033A34
:101404000319C929013A0319CC299F298316031307
:101414000C17831203130C139F1408000310831278
:101424000313430D440DC5004508CB004B08031DB1
:101434001C2A1D2A262A0030C4000030C3000030B4
:10144400C2000030C1008B2A4108C5004208C60012
:101454004308C7004408C8001F300310C80CC70C59
:10146400C60CC50CFF3E031D2F2A4508C9004908B8
:10147400CA00C317FF30C105FF30C205FF30C305E2
:101484000030C4059630CB02CB1F492A4A2A642A6D
:101494004B08803A973E0318502A512A522A1D2A93
:1014A40001300310C40CC30CC20CC10CFF3E031D5D
:1014B400532A0130C5004508CB07031D622A632A5D
:1014C400522A7B2A20304B02031C692A6A2A762A74
:1014D4001D2A0130C5000310C10DC20DC30DC40D7A
:1014E400C50B6D2A0130CB024B08031D7A2A7B2AD7
:1014F4006B2A4A0803197F2A802A8B2AC109C20948
:10150400C309C409C10A0319C20A0319C30A031986
:10151400C40A080083120313A80028080319932A95
:10152400942AA82AA31F972A982AA82A2009AA003D
:101534002109AB002209AC002309AD00AA0A031952
:10154400AB0A0319AC0A0319AD0AB02A2308AD008B
:101554002208AC002108AB002008AA0023082204BA
:1015640021042004031DB72AB82AC12A0030A3008D
:101574000030A2000030A1000030A000472B9630BC
:10158400A4002408A900D32A0130A4002408A90730
:1015940001300310AD0CAC0CAB0CAA0CFF3E031DC8
:1015A400CB2AFE302D05031DD82AD92AC62AF52AAE
:1015B4000130A4002408A9070130AA070030031849
:1015C4000130AB07003003180130AC0700300318BA
:1015D4000130AD0701300310AD0CAC0CAB0CAA0C00
:1015E400FF3E031DED2AFF302D05031DFA2AFB2AB9
:1015F400DA2A072B0130A9020130A4000310AA0D36
:10160400AB0DAC0DAD0DA40B002BAC1B0A2B0B2B9F
:10161400112B023029020318102B112BFC2A291834
:10162400142B152B1D2BFF30AA05FF30AB057F3083
:10163400AC05FF30AD050310A90C2908A400A501D1
:10164400A601A70118300310A40DA50DA60DA70D22
:10165400FF3E031D252B2408AA042508AB042608F5
:10166400AC042708AD0428080319392B3A2B3F2B67
:10167400A31F3D2B3E2B3F2BAD172D08A3002C0899
:10168400A2002B08A1002A08A0000800213083161C
:101694000313860083160317880114308900831608
:1016A4000313850188019F171F129F12C1308312F3
:1016B40003139F00C0308B000A128A151B200A12E4
:1016C4008A150D300A128A1598210A128A150A16EB
:1016D4008A1122270A128A15023083120313D900B1
:1016E4005908A20001300A168A11B1270A128A1574
:1016F40006300A168A11D7270A128A15083083126F
:101704000313D9005908A20001300A168A11B1271F
:101714000A128A150A300A168A11D7270A128A155C
:101724000D3083120313D9005908A20001300A16A0
:101734008A11B1270A128A1501300A168A11D7278D
:101744000A128A158312031367080A168A11F726E8
:101754000A128A158312031366080A168A11F726D9
:101764000A128A15423083120313B1004C30B000C0
:101774000030AF000030AE006708D900DA01DB01A9
:10178400DC015C08A3005B08A2005A08A100590808
:10179400A00001300A128A158C220A128A158312BB
:1017A40003132308B5002208B4002108B30020085D
:1017B400B2000A128A1523260A128A158312031309
:1017C4003108E0003008DF002F08DE002E08DD00BD
:1017D4004230B1004C30B0000030AF000030AE00F9
:1017E4006608D900DA01DB01DC015C08A3005B08B0
:1017F400A2005A08A1005908A00001300A128A1553
:101804008C220A128A15831203132308B5002208B6
:10181400B4002108B3002008B2000A128A15232656
:101824000A128A15831203133108E4003008E30016
:101834002F08E2002E08E1006008CF005F08CE0008
:101844005E08CD005D08CC000A128A11B1250A1287
:101854008A15831203136408CF006308CE0062085C
:10186400CD006108CC000A128A1181230A128A155C
:101874000A128A11F6270A128A15003A0319432C10
:10188400442C502C0A128A150A200A128A15831233
:101894000313D9005908E5001816512C00002B3009
:1018A400831203136506031D582C592C672C013031
:1018B400D9005908E80768080A128A157B240A1215
:1018C4008A1583120313E501A42B2D306506031D2D
:1018D4006C2C6D2C762C0130E80268080A128A15EB
:1018E4007B240A128A15632C0000A42B0A128A1185
:1018F4000E2883120313B0000A30A0000030A100A8
:101904003008A800A9012808A2002908A3000A1287
:101914008A15D4200A128A15831203132108AF00F2
:101924002008AE000A30A0000030A1003008A80052
:10193400A9012808A2002908A3000A128A152F2148
:101944000A128A15831203132108B2002008B10079
:101954000A30A0000030A1003208A3003108A20020
:101964000A128A15D4200A128A1583120313210835
:10197400AD002008AC000A30A0000030A1003208FD
:10198400A3003108A2000A128A152F210A128A150F
:10199400831203132108AB002008AA000D30A8000D
:1019A4002808A20002300A168A11B1270A128A15E1
:1019B400212D10300A168A11D7270A128A158E2D66
:1019C40008300A168A11D7270A128A158E2D0C3070
:1019D4000A168A11D7270A128A158E2D12300A1672
:1019E4008A11D7270A128A158E2D14300A168A11E5
:1019F400D7270A128A158E2D16300A168A11D72770
:101A04000A128A158E2D18300A168A11D7270A123F
:101A14008A158E2D1A300A168A11D7270A128A15AA
:101A24008E2D1C300A168A11D7270A128A158E2D7C
:101A34001E300A168A11D7270A128A158E2D831290
:101A440003132B08003A0319282D8E2D2A08003A77
:101A54000319DB2C013A0319E22C033A0319E92C8C
:101A6400013A0319F02C073A0319F72C013A031928
:101A7400FE2C033A0319052D013A03190C2D0F3AD4
:101A84000319132D013A03191A2D8E2D10300A163D
:101A94008A11D7270A128A15FB2D08300A168A11D3
:101AA400D7270A128A15FB2D0C300A168A11D7275C
:101AB4000A128A15FB2D12300A168A11D7270A1228
:101AC4008A15FB2D14300A168A11D7270A128A1593
:101AD400FB2D16300A168A11D7270A128A15FB2DF8
:101AE40018300A168A11D7270A128A15FB2D1A30C4
:101AF4000A168A11D7270A128A15FB2D1C300A16DA
:101B04008A11D7270A128A15FB2D1E300A168A114C
:101B1400D7270A128A15FB2D831203132D08003AC6
:101B24000319952DFB2D2C08003A0319482D013A71
:101B340003194F2D033A0319562D013A03195D2D4C
:101B4400073A0319642D013A03196B2D033A03195B
:101B5400722D013A0319792D0F3A0319802D013A98
:101B64000319872DFB2D10300A168A11D7270A1264
:101B74008A15222E08300A168A11D7270A128A15C6
:101B8400222E0C300A168A11D7270A128A15222E01
:101B940012300A168A11D7270A128A15222E1430F7
:101BA4000A168A11D7270A128A15222E16300A1607
:101BB4008A11D7270A128A15222E18300A168A117A
:101BC400D7270A128A15222E1A300A168A11D72705
:101BD4000A128A15222E1C300A168A11D7270A12D5
:101BE4008A15222E1E300A168A11D7270A128A1540
:101BF400222E831203132F08003A0319022E222ED9
:101C04002E08003A0319B52D013A0319BC2D033AE5
:101C14000319C32D013A0319CA2D073A0319D12D0B
:101C2400013A0319D82D033A0319DF2D013A031998
:101C3400E62D0F3A0319ED2D013A0319F42D222E46
:101C440008008312031335088039B6003608BF0034
:101C54003508B6003607B7003708C600B41F332E60
:101C6400342E352E461446080319392E3A2E4A2EA0
:101C7400460A031D3E2E3F2E472E0030B50000308D
:101C8400B4000030B3000030B200B417B501522ED6
:101C94000030B5000030B4000030B3000030B200B2
:101CA40031088039B6003608BF063108B600360759
:101CB400B7003708C700B01F602E612E622E47148C
:101CC40047080319662E672E772E470A031D6B2ECD
:101CD4006C2E742E0030B1000030B0000030AF0024
:101CE4000030AE00B017B1017F2E0030B1000030DB
:101CF400B0000030AF000030AE00310830042F04D3
:101D04002E04031D862E872EA02E0030B500003031
:101D1400B4000030B3000030B2008030B4047F302F
:101D2400B5043F08B6003608B5043508B1003408D8
:101D3400B0003308AF003208AE00FF2F4608031D81
:101D4400A42EA52EAE2E0030B1000030B00000301D
:101D5400AF000030AE00FF2F4608B600B7013708C9
:101D6400B90047083602B800031CB90338087F3E9F
:101D7400C00039080318013E003EC1003508BE000A
:101D84003408BD003308BC003208BB000030B50085
:101D94000030B4000030B3000030B2000030C500A1
:101DA4000030C4000030C3000030C200C701242F3B
:101DB40047080319DE2EDF2EFF2E0130B600031074
:101DC400BB0DBC0DBD0DBE0DB60BE12E0130B60032
:101DD4000310B20DB30DB40DB50DB60BEA2EC51F2D
:101DE400F42EF52EF62E32140130B6000310C20D77
:101DF400C30DC40DC50DB60BF82E31083E02031DEC
:101E04000D2F30083D02031D0D2F2F083C02031D2A
:101E14000D2F2E083B02031C102F112F202F4517C6
:101E24002E08BB022F08031C2F0FBC023008031C12
:101E3400300FBD023108031C310FBE020130B60061
:101E44003608C7071A304702031C292F2A2FDA2E17
:101E54003E083D043C043B040319312F322F512F1B
:101E64004214512F0130B6000310B20DB30DB40D5E
:101E7400B50DB60B362FC51F402F412F422F3214FC
:101E84000130B6000310C20DC30DC40DC50DB60B51
:101E9400442FFF30C0070318C10AFF30C107B41F25
:101EA400542F552F342FC701C51F592F5A2F762F62
:101EB400FF304205B600FF304305B700FF3044054C
:101EC400B8007F304505B9003908380437043604B2
:101ED40003196D2F6E2F712FC701C70A762F321C7D
:101EE400742F752F762F6E2F470803197A2F7B2FA7
:101EF400AC2F0130B207003003180130B3070030B3
:101F040003180130B407003003180130B507351C3D
:101F14008C2F8D2FAC2F3208B6003308B70034084D
:101F2400B8003508B9000130BA00390DB90CB80C45
:101F3400B70CB60CBA0B972F3908B5003808B400A3
:101F44003708B3003608B2000130C0070318C10ACD
:101F54000030C1074108803AFF0080307F02031D32
:101F6400B52FFF304002031CB82FB92FC72FFF3005
:101F740083120313C0000030C1000030B5000030EC
:101F8400B4000030B3000030B200831203134108E0
:101F9400803AFF0080307F02031DD22F01304002BF
:101FA4000318D52FD62FE32F83120313C001C101C9
:101FB4000030B5000030B4000030B3000030B2008F
:101FC400BF01831203134008B6003608C600461C3E
:101FD400EC2FED2FEF2FB417F32F7F30B600360818
:101FE400B4054608B6000310360CB7003708B50030
:101FF4003F08B6003608B504972E080010308A0052
:102004000408840A8207003443344F344E34543471
:102014000034533450343134003453345034323473
:1020240000342E3400343034003433340034343447
:102034000034353400343634003437340034383422
:0A20440000343934003456340034FF
:102DEE00F50083160313981CFD2EFE2EF82E750883
:102DFE00831203139900080083120313A000881096
:102E0E0020080A128A1556200A168A1183120313F5
:102E1E000814C730F600132FF60B122F162F172F8C
:102E2E00831203130810C730F6001D2FF60B1C2F4C
:102E3E00202F212F080019308316031399008316B3
:102E4E000317071287110710831603131813831223
:102E5E000313981718131816831603131815181240
:102E6E0083120313981783160313871707178312FA
:102E7E00031318168316031398160800F600831210
:102E8E000313881076080A128A1556200A168A111C
:102E9E00831203130814063083120313A1002F307C
:102EAE00A000A00B582FA10B582F5D2F83120313D8
:102EBE000810C73083120313A000652FA00B642FD8
:102ECE00682F0800F60083120313881476080A127E
:102EDE008A1556200A168A11831203130814063017
:102EEE0083120313A1002F30A000A00B7C2FA10B87
:102EFE007C2F812F831203130810C7308312031304
:102F0E00A000892FA00B882F8C2F0800F6008312AB
:102F1E000313881076080A128A1556200A168A118B
:102F2E00831203130814073083120313A1007C309D
:102F3E00A000A00BA02FA10BA02F00008312031343
:102F4E000810C73083120313A000AD2FA00BAC2FB7
:102F5E00B02F080083120313A4002403031DB82FFF
:102F6E00B92FC52F22087F3EA3002308A5002508F0
:102F7E000A168A1145270A168A11D62F0230240600
:102F8E00031DCA2FCB2FD62F2208BF3EA300230826
:102F9E00A50025080A168A1145270A168A11080067
:102FAE0083120313A400A201A301F22F2208240707
:102FBE0084000A168A1100200A168A110A168A112E
:102FCE0069270A168A11013083120313A207031808
:102FDE00A30A0030A3072208240784000A168A11C8
:102FEE0000200A168A11003A031DFE2FFF2FDD2F37
:022FFE000800C9
:04400E00D4E0FFFFFC
:00000001FF
