:020000040000FA
:060000000A128A110C280F
:10000800FE00030EF1000A08F2000A168A15852A76
:100018000A128A110F2883160313DE0183010A12BC
:100028008A11772E83160313BE006B30A8002808A8
:10003800B1005C2E253045060319232824283028D2
:100048004508A8003E088400280883138000013072
:10005800A8002808BE075C2EB201B301831203135F
:100068006A0884000A168A110A200A128A112E3A8E
:10007800031D3F28402892288316031333170130A5
:10008800A800280883120313EA0783160313BF0185
:10009800C00180280A30F3000030F40083160313EF
:1000A8004008F6003F08F5000A168A11AD200A122A
:1000B8008A11740883160313C0007308BF008312E3
:1000C80003136A0884000A168A110A200A128A1180
:1000D800D03E83160313A800FF3003180030A90090
:1000E8002808BF070318C00A2908C0070130A8005C
:1000F800280883120313EA0783126A0884000A1681
:100108008A110A200A128A110A168A1573220A12FB
:100118008A110318902891284E289A2883160313C9
:10012800BF01C00133169A283315B828013083124D
:100138000313EA07FF306A0784000A168A110A20A7
:100148000A128A1183160313C500A800A9012908F9
:10015800003A0319B0285C2E2808003A0319722EB9
:10016800663A031998285C2E00303205A80007303B
:100178003305A900280829040319C328C428172E01
:10018800331EC728C828CC280630BF000030C0005E
:100198003108840083130008C100840A0008C200E3
:1001A800840A0008C300840A0008C4000430A800B8
:1001B8002808B1074408F6004308F5004208F4008F
:1001C8004108F3000030FA000030F9000030F80070
:1001D8000030F7000A168A155C270A128A110318DC
:1001E800F628F7281429831603134408F600430851
:1001F800F5004208F4004108F3000A168A1568223F
:100208000A128A11760883160313C4007508C300FE
:100218007408C2007308C1000330B2040030B3048C
:1002280083160313B801B9014408F6004308F50022
:100238004208F4004108F3000030FA000030F900E9
:100248000030F8000030F7000A168A15A8240A12B0
:100258008A11031830293129312A03108316031310
:10026800430D440D823EB800FF3003180030B9003A
:10027800FF30B8070318B90AFF30B9070330F30095
:100288000030F4003908F6003808F5000A168A111B
:10029800AD200A128A11740883160313B900730873
:1002A800B8000A3083120313A0000030A10083169F
:1002B8000313390883120313A300831603133808A2
:1002C80083120313A2000A168A155F260A128A11DE
:1002D80083120313210883160313B900831203132F
:1002E800200883160313B800B91F7B297C298229AB
:1002F800FF30B8070318B90AFF30B9073803FF3AC7
:100308000A128A159D240A128A11831203134508BA
:1003180083160313BD0083120313440883160313C3
:10032800BC0083120313430883160313BB00831214
:100338000313420883160313BA00440883120313F5
:10034800AB0083160313430883120313AA00831612
:100358000313420883120313A900831603134108E9
:1003680083120313A800831603133D088312031393
:10037800AF00831603133C0883120313AE008316E1
:1003880003133B0883120313AD00831603133A08C3
:1003980083120313AC000A128A153C210A128A112F
:1003A800831203132B0883160313BD008312031350
:1003B8002A0883160313BC00831203132908831623
:1003C8000313BB0083120313280883160313BA0010
:1003D8003D08F6003C08F5003B08F4003A08F30035
:1003E8003F30FA008030F9000030F8000030F700A4
:1003F8000A168A155C270A128A110318042A052A84
:100408000E2AFF3083160313B8070318B90AFF3002
:10041800B907312A831603133D08F6003C08F50096
:100428003B08F4003A08F3004130FA002030F900A4
:100438000030F8000030F7000A168A155C270A1207
:100448008A11031C282A292A312A0130831603130A
:10045800B8070318B90A0030B90783160313400810
:10046800803AFF0080307F02031D3C2A0D303F0296
:1004780003183F2A402A872A831603133F080A16BF
:100488008A116B230A128A11831203134508D900B3
:100498004408D8004308D7004208D600831603133F
:1004A800440883120313DD008316031343088312E1
:1004B8000313DC0083160313420883120313DB00C3
:1004C80083160313410883120313DA000A168A11EC
:1004D80078250A128A118312031359088316031305
:1004E800C40083120313580883160313C30083122E
:1004F8000313570883160313C20083120313560805
:1005080083160313C100831603133908803AFF00CA
:1005180080307F02031D922A0A3038020318952A78
:10052800962AE72A831603134408F6004308F500C1
:100538004208F4004108F3000030FA000030F900E6
:100548000030F8000030F7000A168A15A8240A12AD
:100558008A110318B02AB12A592B831603134408A9
:1005680083120313D800831603134308831203135B
:10057800D70083160313420883120313D600831689
:100588000313410883120313D5000A128A150320A6
:100598000A128A1183120313580857045604550483
:1005A800031DD72AD82A592B831603133908803AF2
:1005B800FF0080307F02031DE32A02303802031C4B
:1005C800E62AE72A592B831603133D08F6003C0850
:1005D800F5003B08F4003A08F3004030FA0089308F
:1005E800F9007030F8005F30F7000A168A155C27AA
:1005F8000A128A110318012B022B0B2BF7308316D2
:100608000313B8070318B90AFF30B907132BF830DA
:1006180083160313B8070318B90AFF30B907380857
:100628000A128A159D240A128A1183120313450897
:1006380083160313BD0083120313440883160313A0
:10064800BC0083120313430883160313BB008312F1
:100658000313420883160313BA004408F60043083C
:10066800F5004208F4004108F3003D08FA003C0890
:10067800F9003B08F8003A08F7000A128A114127E6
:100688000A128A11760883160313B7007508B60094
:100698007408B5007308B4000030C4000030C3000B
:1006A8000030C2000030C100BF2B8316031344087A
:1006B80083120313D800831603134308831203130A
:1006C800D70083160313420883120313D600831638
:1006D8000313410883120313D5000A128A15032055
:1006E8000A128A1183120313580883160313B700DA
:1006F80083120313570883160313B60083120313D8
:10070800560883160313B50083120313550883167E
:100718000313B4003708F6003608F5003508F4006E
:100728003408F30000300A168A11D2200A128A11FE
:10073800760883160313A3007508A2007408A100A5
:100748007308A0004408A7004308A6004208A500B3
:100758004108A4000A168A15F8240A128A11831679
:1007680003132308C4002208C3002108C20020087C
:10077800C100B801B901C501C50A4508A800013082
:100788000310A80DFF3E031DC42B0310280D693E5E
:1007980084000A168A110A200A128A11A9000A1668
:1007A8008A110A200A128A11AA000A168A110A2036
:1007B8000A128A11AB000A168A110A200A128A1133
:1007C800AC002C083702031DF32B2B083602031D3F
:1007D800F32B2A083502031DF32B290834020318CA
:1007E800F62BF72BF82B022C0130A8002808C50798
:1007F8000A304506031D012C022CC12B033032059B
:10080800A80000303305A9002808290403190D2C75
:100818000E2C802C2D30A8003E0884002808831355
:1008280080000130A8002808BE07802C4508A800D1
:1008380001300310A80DFF3E031D1D2C0310280DC9
:10084800693E84000A168A110A200A128A11F300E6
:100858000A168A110A200A128A11F4000A168A1145
:100868000A200A128A11F5000A168A110A200A12A9
:100878008A11F6003708FA003608F9003508F8003A
:100888003408F7000A168A15F7250A128A1176081D
:1008980083160313BD007508BC007408BB007308F9
:1008A800BA000030F6000030F5000030F4000A30DD
:1008B800F3003D08FA003C08F9003B08F8003A0844
:1008C800F7000A168A1548250A128A11760883162F
:1008D8000313BD007508BC007408BB007308BA0098
:1008E8003A08303EA8003E08840028088313800098
:1008F8000130A8002808BE070130C502450A031DBB
:10090800862C872C1A2C9B2C303083160313A800B6
:100918003E0884002808831380000130A8002808B6
:10092800BE07FF30B8070318B90AFF30B9073908FE
:10093800803AFF0080307F02031DA42C013038026A
:100948000318A72CA82C882C831603134008803A78
:10095800FF0080307F02031DB32C09303F02031CC7
:10096800B62CB72CBE2C083083160313A800280811
:10097800C500C42C831603133F08A8002808C50027
:100988004508A800A9012808BF022908031CC003BC
:10099800C00245080319D12CD22CDD2C2E30A8001A
:1009A8003E0884002808831380000130A800280826
:1009B800BE0745080A128A159D240A128A11831255
:1009C8000313450883160313B00083120313440866
:1009D80083160313AF00831203134308831603130C
:1009E800AE0083120313420883160313AD003008C8
:1009F80083120313AF00831603132F088312031304
:100A0800AE00831603132E0883120313AD0083165A
:100A180003132D0883120313AC0083160313440831
:100A280083120313AB0083160313430883120313C3
:100A3800AA0083160313420883120313A90083161E
:100A48000313410883120313A8000A128A153C21D4
:100A58000A128A11831203132B08D8002A08D70018
:100A68002908D6002808D5000A128A1503200A1278
:100A78008A1183120313580883160313B7008312CD
:100A88000313570883160313B6008312031356087B
:100A980083160313B5008312031355088316031333
:100AA800B400F72D4508A80001300310A80DFF3E3B
:100AB800031D592D0310280D693E84000A168A115A
:100AC8000A200A128A11F3000A168A110A200A1249
:100AD8008A11F4000A168A110A200A128A11F500EE
:100AE8000A168A110A200A128A11F6003708FA0033
:100AF8003608F9003508F8003408F7000A168A1590
:100B0800F7250A128A11760883160313BD007508A3
:100B1800BC007408BB007308BA000030F60000304F
:100B2800F5000030F4000A30F3003D08FA003C08F4
:100B3800F9003B08F8003A08F7000A168A15482514
:100B48000A128A11760883160313BD007508BC00C3
:100B58007408BB007308BA003A08303EA8003E0883
:100B680084002808831380000130A8002808BE07E5
:100B78004508A80001300310A80DFF3E031DBF2D36
:100B88000310280D693E84000A168A110A200A12E9
:100B98008A11F3000A168A110A200A128A11F4002F
:100BA8000A168A110A200A128A11F5000A168A11F1
:100BB8000A200A128A11F6003708FA003608F900E6
:100BC8003508F8003408F7000A168A1548250A126D
:100BD8008A11760883160313B7007508B6007408DF
:100BE800B5007308B4000130C502450A031DFD2D88
:100BF800FE2D562D102E3030A8003E0884002808FF
:100C0800831380000130A8002808BE07FF30BF0703
:100C18000318C00AFF30C0073F084004031D152E03
:100C2800162EFF2D5C2E3F084004031D1C2E1D2E82
:100C38002B2E3708360435043404031D242E252EA4
:100C48002B2E0130BF070318C00A0030C007400828
:100C5800803A803C031D322E3F0845020318352E8A
:100C6800362E372E462E831603134008803AA800E6
:100C780080302802031D422E45083F020318452EE6
:100C8800462E462E0330831603133205A800003083
:100C98003305A900280829040319532E542E5C2E65
:100CA8002D30A8003E0884002808831380002B28D4
:100CB800013083120313EA07FF306A0784000A161B
:100CC8008A110A200A128A1183160313A800280819
:100CD800C5004508031D712E722E1E283E0884008B
:100CE80083138001080021308316031386008316BE
:100CF80003178801143089008316031385018801BE
:100D08009F171F129F12C130831203139F00C03018
:100D18008B000A168A156C230A128A110D300A16DE
:100D28008A15C8260A128A11053083160313C600CD
:100D38004608F70001300A168A151F230A128A117D
:100D48009130F7008030F8000A168A151E240A121E
:100D58008A11423083120313A9004C30A8000030D6
:100D6800A7000030A600831603135E08C600C7015B
:100D7800C801C9014908F6004808F5004708F40009
:100D88004608F30001300A168A11D2200A128A1185
:100D9800760883120313AD007508AC007408AB0025
:100DA8007308AA000A168A118E210A128A11831260
:100DB8000313290883160313DD008312031328087D
:100DC80083160313DC008312031327088316031307
:100DD800DB0083120313260883160313DA00973007
:100DE800C600460883120313EA00831603135D083E
:100DF80083120313EE00831603135C088312031394
:100E0800ED00831603135B0883120313EC008316AB
:100E180003135A0883120313EB00CA300A128A110B
:100E280016200A128A11F701F70A02300A168A15E3
:100E38001F230A128A11CA30F7000030F8000A1678
:100E48008A151E240A128A11053083160313C60058
:100E58004608F70002300A168A151F230A128A115B
:100E68009C30F7008030F8000A168A151E240A12F2
:100E78008A11AD2E0A128A110C280310750D760DF1
:100E880083120313A0002008A6002608031D4D2F77
:100E98004E2F572F0030F6000030F5000030F400D8
:100EA8000030F300FE2F0310790D7A0DA000200802
:100EB800A5002508031D612F622F632F4E2FF517FC
:100EC800FF30F305FF30F405FF30F5050030F60577
:100ED800F917FF30F705FF30F805FF30F905003046
:100EE800FA050030A4000030A3000030A200003052
:100EF800A1007F30A602A0302507A0002008A60286
:100F08002030A0002008A5000130A0000310A10D8A
:100F1800A20DA30DA40DA00B8A2F7A087602031D3B
:100F28009F2F79087502031D9F2F78087402031DEF
:100F38009F2F77087302031CA22FA32FB22F7708C5
:100F4800F3027808031C780FF4027908031C790F60
:100F5800F5027A08031C7A0FF60221140130A0006A
:100F68000310F30DF40DF50DF60DA00BB42F0130A1
:100F7800A502031DC02FC12F882FA61FC42FC52F60
:100F8800DF2F2608803A9F3E0318CB2FCC2FCD2F7A
:100F98004E2F01300310A40CA30CA20CA10CFF3E91
:100FA800031DCE2F0130A0002008A607031DDD2F4A
:100FB800DE2FCD2FF62F20302602031CE42FE52F3D
:100FC800F12F4E2F0130A0000310A10DA20DA30D8B
:100FD800A40DA00BE82F0130A6022608031DF52F4B
:100FE800F62FE62F2408F6002308F5002208F4005F
:060FF8002108F3000800CF
:10100600031083120313570D580DD9005908DF003A
:101016005F08031D0F28102819280030D80000305B
:10102600D7000030D6000030D5007E285508D900FC
:101036005608DA005708DB005808DC001F3003109A
:10104600DC0CDB0CDA0CD90CFF3E031D22285908F8
:10105600DD005D08DE00D717FF30D505FF30D60569
:10106600FF30D7050030D8059630DF02DF1F3C2859
:101076003D2857285F08803A973E0318432844289E
:101086004528102801300310D80CD70CD60CD50CE7
:10109600FF3E031D46280130D9005908DF07031D0E
:1010A6005528562845286E2820305F02031C5C28E8
:1010B6005D28692810280130D9000310D50DD60DFA
:1010C600D70DD80DD90B60280130DF025F08031D4C
:1010D6006D286E285E285E080319722873287E28FC
:1010E600D509D609D709D809D50A0319D60A031985
:1010F600D70A0319D80A0800730883120313A0003D
:101106007408A1007508A2000310210D220DA3008A
:101116002308A9002908031D912892289B2800303E
:10112600F6000030F5000030F4000030F3003B29F3
:101136007708A0007808A1007908A2000310210D05
:10114600220DA3002308A8002808031DAB28AC28FD
:10115600AD289228F417FF30F305FF30F405003070
:10116600F505F817FF30F705FF30F8050030F905EB
:101176000030A7000030A6000030A5000030A40013
:101186007F30A90298302807A0002008A90218304D
:10119600A0002008A8000130A0000310A40DA50D92
:1011A600A60DA70DA00BD02879087502031DE1280E
:1011B60078087402031DE12877087302031CE428EB
:1011C600E528F0287708F3027808031C780FF40264
:1011D6007908031C790AF502241401300310F30D73
:1011E600F40DF50DFF3E031DF1280130A802031D85
:1011F600FD28FE28CE28A91F012902291C29290815
:10120600803A973E0318082909290A2992280130AD
:101216000310A70CA60CA50CA40CFF3E031D0B295E
:101226000130A0002008A907031D1A291B290A2935
:10123600332918302902031C212922292E29922814
:101246000130A0000310A40DA50DA60DA70DA00B3F
:1012560025290130A9022908031D3229332923290A
:101266002708F6002608F5002508F4002408F300F0
:101276000800831203132B088039B0003008B5002C
:101286002B08B0003007B1003108BB00AA1F4C295B
:101296004D294E293B143B0803195229532962292B
:1012A6003B0A031D5729582960290030AB0000303E
:1012B600AA000030A9000030A800AA176A29003049
:1012C600AB000030AA000030A9000030A8002F08AB
:1012D6008039B0003008B5062F08B0003007B100DD
:1012E6003108BA00AE1F782979297A293A143A08C2
:1012F60003197E297F298E293A0A031D8329842909
:101306008C290030AF000030AE000030AD00003058
:10131600AC00AE1796290030AF000030AE000030AA
:10132600AD000030AC003A0803199A299B29A02980
:101336003B08031D9F29A029A9290030AB000030D6
:10134600AA000030A9000030A8009C2C2808B00094
:101356003008F3002E080A168A1543230A128A1546
:10136600740883120313C1007308C0004008B0005C
:10137600B101B201B3013308B9003208B80031082F
:10138600B7003008B6004108B000B101B201B301A0
:101396003308BF003208BE003108BD003008BC006B
:1013A6002908B0003008F3002D080A168A154323D1
:1013B6000A128A15740883120313C1007308C00049
:1013C6004008B000B101B201B3013008B6073108D8
:1013D60003110318013E0319F129B7073208031157
:1013E6000318013E0319F829B80733080311031837
:1013F600013E0319FF29B9074108B000B101B20146
:10140600B3013008BC07310803110318013E031964
:101416000D2ABD07320803110318013E0319142AC9
:10142600BE07330803110318013E03191B2ABF0721
:101436002A08B0003008F3002C080A168A15432340
:101446000A128A15740883120313C1007308C000B8
:101456004008B000B101B201B3013008B607310847
:1014660003110318013E0319392AB707320803117D
:101476000318013E0319402AB8073308031103185D
:10148600013E0319472AB9074108B000B101B2016C
:10149600B3013008BC07310803110318013E0319D4
:1014A600552ABD07320803110318013E03195C2AA9
:1014B600BE07330803110318013E0319632ABF0749
:1014C6000830B0000310B60DB70DB80DB90DB00B4E
:1014D600652A2908B0003008F3002C080A168A1578
:1014E60043230A128A15740883120313C100730872
:1014F600C0004008B0004108B100B201B301300895
:10150600B607310803110318013E03198B2AB707E2
:10151600320803110318013E0319922AB80733084B
:1015260003110318013E0319992AB9072808B000C8
:101536003008F3002D080A168A1543230A128A1565
:10154600740883120313C1007308C0004008B0007A
:101556004108B100B201B3013008B60731080311E2
:101566000318013E0319B82AB707320803110318F6
:10157600013E0319BF2AB807330803110318013EB9
:101586000319C62AB9070830B0000310B60DB70D07
:10159600B80DB90DB00BC82A2808B0003008F30002
:1015A6002C080A168A1543230A128A157408831210
:1015B6000313C1007308C0004008B0004108B10021
:1015C600B201B3013008B607310803110318013E12
:1015D6000319EE2AB707320803110318013E03194F
:1015E600F52AB807330803110318013E0319FC2A2C
:1015F600B9072908B0003008F3002E080A168A1524
:1016060043230A128A15740883120313C100730850
:10161600C0004008B0004108B100B201B301300873
:10162600BC07310803110318013E03191B2BBD0724
:10163600320803110318013E0319222BBE07330893
:1016460003110318013E0319292BBF072A08B0000E
:101656003008F3002D080A168A1543230A128A1544
:10166600740883120313C1007308C0004008B00059
:101676004108B100B201B3013008BC0731080311BB
:101686000318013E0319482BBD073208031103183E
:10169600013E03194F2BBE07330803110318013E01
:1016A6000319562BBF072A08B0003008F3002E088E
:1016B6000A168A1543230A128A157408831203131D
:1016C600C1007308C0004008B0004108B100B20173
:1016D600B30108300310B00DB10DB20DB30DFF3ECE
:1016E600031D6D2B3008BC07310803110318013E9A
:1016F60003197E2BBD07320803110318013E031997
:10170600852BBE07330803110318013E03198C2BE2
:10171600BF073608B0003708B1003808B2003908EC
:10172600B30018300310B30CB20CB10CB00CFF3E72
:10173600031D952B3008BC07310803110318013E21
:101746000319A62BBD07320803110318013E03191E
:10175600AD2BBE07330803110318013E0319B42B42
:10176600BF070830B0000310B60DB70DB80DB90DA0
:10177600B00BB62B3B083A07B000B101B10D3008EB
:10178600823EC00031080318013EFF3EC100E82B2F
:101796000130B0000310BC0DBD0DBE0DBF0DB00B6A
:1017A600CD2BB91FD72BD82BD92B3C140130B00029
:1017B6000310B60DB70DB80DB90DB00BDB2BFF300E
:1017C600C0070318C10AFF30C107BE1FEB2BEC2B65
:1017D600CB2BBA01B91FF02BF12B0D2CFF303605A0
:1017E600B000FF303705B100FF303805B2007F305A
:1017F6003905B30033083204310430040319042CCC
:10180600052C082CBA01BA0A0D2C3C1C0B2C0C2CEE
:101816000D2C052C3A080319112C122C432C0130DF
:10182600BC07003003180130BD0700300318013033
:10183600BE07003003180130BF073F1C232C242CA1
:10184600432C3C08B0003D08B1003E08B2003F08FA
:10185600B3000130B400330DB30CB20CB10CB00CB4
:10186600B40B2E2C3308BF003208BE003108BD0071
:101876003008BC000130C0070318C10A0030C10798
:101886004108803AFF0080307F02031D4C2CFF3058
:101896004002031C4F2C502C5B2C7F308312031309
:1018A600BF008030BE000030BD000030BC00902C70
:1018B600831203134108803AFF0080307F02031D24
:1018C600662C013040020318692C6A2C762C0030F5
:1018D60083120313BF000030BE000030BD0000308D
:1018E600BC00B501902C831203134008B0003008E9
:1018F600BB00FF30BC05FF30BD057F30BE050030A4
:10190600BF053B1C872C882C892CBE173B08B000D2
:101916000310300CB1003108BF003508B0003008A4
:10192600BF043F08AB003E08AA003D08A9003C08DA
:10193600A800080083120313D400D41FA32CA42CE0
:10194600532ED409D40A5408803A123E031CAC2CF8
:10195600AD2C972D0A30A0000030A1005408F500E8
:10196600F601F51BF6036430F3000030F4000A16A6
:101976008A159E250A128A15740883120313A3007A
:101986007308A2000A168A155F260A128A158312A0
:1019960003132008C60001300310C60DFF3E031DC9
:1019A600CF2C0310460D593E84000A168A110A20D0
:1019B6000A128A15C7000A168A110A200A128A15FF
:1019C600C8000A168A110A200A128A15C9000A16C0
:1019D6008A110A200A128A15CA004A08AB00490869
:1019E600AA004808A9004708A8006430A0000030F3
:1019F600A1005408A200A301A21BA3030A168A157C
:101A06005F260A128A15831203132008CB000130C1
:101A16000310CB0DFF3E031D0B2D03104B0D7D3E1A
:101A260084000A168A110A200A128A15CC000A16A0
:101A36008A110A200A128A15CD000A168A110A206E
:101A46000A128A15CE000A168A110A200A128A1567
:101A5600CF004F08AF004E08AE004D08AD004C0851
:101A6600AC000A128A153C210A128A158312031346
:101A76002B08D3002A08D2002908D1002808D00054
:101A86000A30F3000030F4005408F500F601F51BA7
:101A9600F6030A168A159E250A128A1573088312FA
:101AA6000313C60001300310C60DFF3E031D562D5D
:101AB6000310460D353E84000A168A110A200A12C2
:101AC6008A15C7000A168A110A200A128A15C80042
:101AD6000A168A110A200A128A15C9000A168A11DC
:101AE6000A200A128A15CA004A08AB004908AA0049
:101AF6004808A9004708A8005308AF005208AE00DE
:101B06005108AD005008AC000A128A153C210A1291
:101B16008A15831203132B08C5002A08C400290856
:101B2600C3002808C200FF2F5408803A753E031CE4
:101B36009D2D9E2D262E0A30F3000030F400540809
:101B4600F500F601F51BF6030A168A159E250A12FC
:101B56008A15730883120313C60001300310C60DDD
:101B6600FF3E031DB12D0310460D353E84000A16B7
:101B76008A110A200A128A15C7000A168A110A2033
:101B86000A128A15C8000A168A110A200A128A152C
:101B9600C9000A168A110A200A128A15CA004A08BA
:101BA600AB004908AA004808A9004708A8000A305F
:101BB600A0000030A1005408A200A301A21BA303A9
:101BC6000A168A155F260A128A158312031320083D
:101BD600CB0001300310CB0DFF3E031DED2D03108E
:101BE6004B0D593E84000A168A110A200A128A15DC
:101BF600CC000A168A110A200A128A15CD000A1686
:101C06008A110A200A128A15CE000A168A110A209B
:101C16000A128A15CF004F08AF004E08AE004D08D5
:101C2600AD004C08AC000A128A153C210A128A152E
:101C3600831203132B08C5002A08C4002908C30011
:101C46002808C200FF2F5408C60001300310C60D35
:101C5600FF3E031D292E0310460D353E84000A164D
:101C66008A110A200A128A15C7000A168A110A2042
:101C76000A128A15C8000A168A110A200A128A153B
:101C8600C9000A168A110A200A128A15CA004A08C9
:101C9600C5004908C4004808C3004708C200FF2F12
:101CA6005408803A123E031C592E5A2E442F0A30ED
:101CB600A0000030A1005408F500F601F51BF6035C
:101CC6006430F3000030F4000A168A159E250A12C5
:101CD6008A15740883120313A3007308A2000A1658
:101CE6008A155F260A128A15831203132008C60076
:101CF60001300310C60DFF3E031D7C2E0310460D5A
:101D0600253E84000A168A110A200A128A15C7007F
:101D16000A168A110A200A128A15C8000A168A119A
:101D26000A200A128A15C9000A168A110A200A12FE
:101D36008A15CA004A08AB004908AA004808A90043
:101D46004708A8006430A0000030A1005408A20093
:101D5600A301A21BA3030A168A155F260A128A1577
:101D6600831203132008CB0001300310CB0DFF3E76
:101D7600031DB82E03104B0D493E84000A168A1126
:101D86000A200A128A15CC000A168A110A200A129B
:101D96008A15CD000A168A110A200A128A15CE0063
:101DA6000A168A110A200A128A15CF004F08AF00B8
:101DB6004E08AE004D08AD004C08AC000A128A155C
:101DC6003C210A128A15831203132B08D3002A0812
:101DD600D2002908D1002808D0000A30F3000030CC
:101DE600F4005408F500F601F51BF6030A168A15E9
:101DF6009E250A128A15730883120313C600013042
:101E06000310C60DFF3E031D032F0310460D013EB2
:101E160084000A168A110A200A128A15C7000A16B1
:101E26008A110A200A128A15C8000A168A110A207F
:101E36000A128A15C9000A168A110A200A128A1578
:101E4600CA004A08AB004908AA004808A900470882
:101E5600A8005308AF005208AE005108AD00500864
:101E6600AC000A128A153C210A128A158312031342
:101E76002B08C5002A08C4002908C3002808C20088
:101E8600FF2F5408803A753E031C4A2F4B2FD32F41
:101E96000A30F3000030F4005408F500F601F51B93
:101EA600F6030A168A159E250A128A1573088312E6
:101EB6000313C60001300310C60DFF3E031D5E2F3F
:101EC6000310460D013E84000A168A110A200A12E2
:101ED6008A15C7000A168A110A200A128A15C8002E
:101EE6000A168A110A200A128A15C9000A168A11C8
:101EF6000A200A128A15CA004A08AB004908AA0035
:101F06004808A9004708A8000A30A0000030A10030
:101F16005408A200A301A21BA3030A168A155F2672
:101F26000A128A15831203132008CB00013003100E
:101F3600CB0DFF3E031D9A2F03104B0D253E84004B
:101F46000A168A110A200A128A15CC000A168A1164
:101F56000A200A128A15CD000A168A110A200A12C8
:101F66008A15CE000A168A110A200A128A15CF008F
:101F76004F08AF004E08AE004D08AD004C08AC004F
:101F86000A128A153C210A128A15831203132B089A
:101F9600C5002A08C4002908C3002808C200FF2F6C
:101FA6005408C60001300310C60DFF3E031DD62F90
:101FB6000310460D013E84000A168A110A200A12F1
:101FC6008A15C7000A168A110A200A128A15C8003D
:101FD6000A168A110A200A128A15C9000A168A11D7
:101FE6000A200A128A15CA004A08C5004908C40010
:101FF6004808C3004708C2000800FF1B0A288313CD
:102006007F1883170008840A0319FF0A0800103096
:102016008A000408840A82070034003400348034BD
:102026003F34003400342034413400340034C834A2
:102036004234003400347A344434003440341C349E
:10204600463400345034C3344734003424347434B2
:1020560049348034963418344B342034BC34BE347E
:102066004C3428346B346E344E34F934023415341F
:102076005034EC347834AD346034CA34F2344934F4
:1020860071340034003480343F34CD34CC34CC3415
:102096003D340A34D73423343C346F341234833419
:1020A6003A341734B734D1343834AC34C5342734E1
:1020B6003734BD343734863435349534BF34D6346A
:1020C60033347734CC342B3432345F34703489343F
:1020D6003034FF34E634DB342E340834E5343C3413
:1020E6001E3460344234A2340D34013400340034DA
:1020F60000340A34003400340034643400340034CC
:102106000034E83403340034003410342734003407
:102116000034A034863401340034403442340F3461
:10212600003480349634983400340034E134F53485
:1021360005340034CA349A343B3441346934753436
:1021460064346134003425342E3432346634003439
:1021560056340034F701F801731CB228B328B928A5
:102166007508F7070318F80A7608F8070130031010
:10217600F50DF60DFF3E031DBA2801300310F40CD1
:10218600F30CFF3E031DC12873087404031DCC28FD
:10219600CD28AF287808F4007708F30008008312EA
:1021A6000313A00020080319D928DA28EE28F61F01
:1021B600DD28DE28EE287309A2007409A30075093C
:1021C600A4007609A500A20A0319A30A0319A40A02
:1021D6000319A50AF6287608A5007508A400740850
:1021E600A3007308A2007608750474047304031D23
:1021F600FD28FE2807290030F6000030F5000030E3
:10220600F4000030F3008D299630F7007708A1001E
:1022160019290130F7007708A10701300310A50C32
:10222600A40CA30CA20CFF3E031D1129FE302505AC
:10223600031D1E291F290C293B290130F7007708A9
:10224600A1070130A207003003180130A3070030B0
:1022560003180130A407003003180130A507013028
:102266000310A50CA40CA30CA20CFF3E031D3329DE
:10227600FF302505031D4029412920294D2901301C
:10228600A1020130F7000310A20DA30DA40DA50DA8
:10229600F70B4629A41B5029512957290230210240
:1022A600031856295729422921185A295B296329D7
:1022B600FF30A205FF30A3057F30A405FF30A5053A
:1022C6000310A10C2108F700F801F901FA011830F2
:1022D6000310F70DF80DF90DFA0DFF3E031D6B29DE
:1022E6007708A2047808A3047908A4047A08A50448
:1022F600200803197F2980298529F61F8329842927
:102306008529A5172508F6002408F5002308F400FA
:102316002208F3000800831203132D088039AE004B
:102326002E08B7002D08AE002E07AF002F08BE00FE
:10233600AC1F9E299F29A0293E143E080319A429F3
:10234600A529B5293E0A031DA929AA29B2290030C3
:10235600AD000030AC000030AB000030AA00AC1776
:10236600AD01BD290030AD000030AC000030AB003F
:102376000030AA0029088039AE002E08B7062908C1
:10238600AE002E07AF002F08BF00A81FCB29CC290F
:10239600CD293F143F080319D129D229E2293F0A42
:1023A600031DD629D729DF290030A9000030A8004F
:1023B6000030A7000030A600A817A901EA290030BE
:1023C600A9000030A8000030A7000030A6002908A8
:1023D600280427042604031DF129F2290B2A0030BC
:1023E600AD000030AC000030AB000030AA008030F9
:1023F600AC047F30AD043708AE002E08AD042D08BE
:10240600A9002C08A8002B08A7002A08A6006A2BFA
:102416003E08031D0F2A102A192A0030A900003091
:10242600A8000030A7000030A6006A2B3E08AE00C8
:10243600AF012F08B1003F082E02B000031CB10304
:1024460030087F3EB80031080318013E003EB9004F
:102456002D08B6002C08B5002B08B4002A08B300D6
:102466000030AD000030AC000030AB000030AA00F8
:102476000030BD000030BC000030BB000030BA00A8
:10248600BF018F2A3F080319492A4A2A6A2A0130BE
:10249600AE000310B30DB40DB50DB60DAE0B4C2A40
:1024A6000130AE000310AA0DAB0DAC0DAD0DAE0B99
:1024B600552ABD1F5F2A602A612A2A140130AE0000
:1024C6000310BA0DBB0DBC0DBD0DAE0B632A29085A
:1024D6003602031D782A28083502031D782A2708A4
:1024E6003402031D782A26083302031C7B2A7C2A21
:1024F6008B2A3D172608B3022708031C270FB402B0
:102506002808031C280FB5022908031C290FB60248
:102516000130AE002E08BF071A303F02031C942A72
:10252600952A452A360835043404330403199C2AAF
:102536009D2ABC2A3A14BC2A0130AE000310AA0D0B
:10254600AB0DAC0DAD0DAE0BA12ABD1FAB2AAC2A4F
:10255600AD2A2A140130AE000310BA0DBB0DBC0D16
:10256600BD0DAE0BAF2AFF30B8070318B90AFF300E
:10257600B907AC1FBF2AC02A9F2ABF01BD1FC42AA4
:10258600C52AE12AFF303A05AE00FF303B05AF0011
:10259600FF303C05B0007F303D05B1003108300406
:1025A6002F042E040319D82AD92ADC2ABF01BF0A10
:1025B600E12A2A1CDF2AE02AE12AD92A3F08031940
:1025C600E52AE62A172B0130AA0700300318013046
:1025D600AB07003003180130AC0700300318013098
:1025E600AD072D1CF72AF82A172B2A08AE002B0850
:1025F600AF002C08B0002D08B1000130B200310D3B
:10260600B10CB00CAF0CAE0CB20B022B3108AD0006
:102616003008AC002F08AB002E08AA000130B8071E
:102626000318B90A0030B9073908803AFF0080302C
:102636007F02031D202BFF303802031C232B242B83
:10264600322BFF3083120313B8000030B90000307C
:10265600AD000030AC000030AB000030AA008312A1
:1026660003133908803AFF0080307F02031D3D2B9B
:10267600013038020318402B412B4E2B83120313D3
:10268600B801B9010030AD000030AC000030AB003D
:102696000030AA00B701831203133808AE002E08D3
:1026A600BE003E1C572B582B5A2BAC175E2B7F3087
:1026B600AE002E08AC053E08AE0003102E0CAF008F
:1026C6002F08AD003708AE002E08AD04022A080018
:1026D60083120313D5006E305502031C732B742B23
:1026E600832C3F30AB000030AA000030A900003038
:1026F600A8006430A0000030A1005508C600C7013C
:102706004608A2004708A3000A168A1562240A167C
:102716008A11831203132008C80001300310C80D64
:10272600FF3E031D912B0310480D7D3E84000A16C3
:102736008A110A200A168A11C9000A168A110A2065
:102746000A168A11CA000A168A110A200A168A115E
:10275600CB000A168A110A200A168A11CC004C08E8
:10276600AF004B08AE004A08AD004908AC000A129B
:102776008A153C210A168A11831203132B08D400EA
:102786002A08D3002908D2002808D1000A30A00060
:102796000030A1005508C600C7014608F5004708E5
:1027A600F6006430F3000030F4000A168A15A623FA
:1027B6000A168A11740883120313A3007308A20071
:1027C6000A168A1562240A168A1183120313200830
:1027D600C80001300310C80DFF3E031DED2B03108A
:1027E600480D593E84000A168A110A200A168A11D3
:1027F600C9000A168A110A200A168A11CA000A1680
:102806008A110A200A168A11CB000A168A110A2092
:102816000A168A11CC004C08AB004B08AA004A08DD
:10282600A9004908A8005408AF005308AE00520892
:10283600AD005108AC000A128A153C210A168A110D
:10284600831203132B08D0002A08CF002908CE00D4
:102856002808CD000A30F3000030F4005508C60001
:10286600C7014608F5004708F6000A168A15A6238A
:102876000A168A11730883120313C8000130031065
:10288600C80DFF3E031D422C0310480D353E840043
:102896000A168A110A200A168A11C9000A168A110E
:1028A6000A200A168A11CA000A168A110A200A166E
:1028B6008A11CB000A168A110A200A168A11CC0040
:1028C6004C08AB004B08AA004A08A9004908A80012
:1028D6005008AF004F08AE004E08AD004D08AC00E2
:1028E6000A128A153C210A168A11831203132B0831
:1028F600C5002A08C4002908C3002808C200772D8D
:102906000B305502031C882C892C342D3F30AB002C
:102916000030AA000030A9000030A8000A30A0004C
:102926000030A1005508C600C7014608A2004708A6
:10293600A3000A168A1562240A168A118312031343
:102946002008C80001300310C80DFF3E031DA62C49
:102956000310480D593E84000A168A110A200A16E9
:102966008A11C9000A168A110A200A168A11CA0093
:102976000A168A110A200A168A11CB000A168A112B
:102986000A200A168A11CC004C08AF004B08AE008C
:102996004A08AD004908AC000A128A153C210A16FD
:1029A6008A11831203132B08D4002A08D30029089E
:1029B600D2002808D1000A30F3000030F400550890
:1029C600C600C7014608F5004708F6000A168A152C
:1029D600A6230A168A11730883120313C80001304E
:1029E6000310C80DFF3E031DF32C0310480D353EA2
:1029F60084000A168A110A200A168A11C9000A16C4
:102A06008A110A200A168A11CA000A168A110A2091
:102A16000A168A11CB000A168A110A200A168A118A
:102A2600CC004C08AB004B08AA004A08A90049088C
:102A3600A8005408AF005308AE005208AD00510874
:102A4600AC000A128A153C210A168A118312031356
:102A56002B08C5002A08C4002908C3002808C2009C
:102A6600772D3F30AB000030AA000030A9000030BF
:102A7600A8005508C60001300310C60DFF3E031D11
:102A86003F2D0310460D353E84000A168A110A2092
:102A96000A168A11C7000A168A110A200A168A110E
:102AA600C8000A168A110A200A168A11C9000A16CF
:102AB6008A110A200A168A11CA004A08AF00490874
:102AC600AE004808AD004708AC000A128A153C2142
:102AD6000A168A11831203132B08C5002A08C4009C
:102AE6002908C3002808C2000800831203135908E6
:102AF6008039DE005E08E6005908DE005E07DF006A
:102B06005F08E800D81F882D892D8A2D681468086B
:102B160003198E2D8F2D9F2D680A031D932D942D3D
:102B26009C2D0030D9000030D8000030D70000308E
:102B3600D600D817D901A72D0030D9000030D8000B
:102B46000030D7000030D6005D088039DE005E0810
:102B5600E700670866060319B12DB22DB32D661777
:102B66005D08DE005E07DF005F08E700DC1FBC2DA6
:102B7600BD2DBE2D671467080319C22DC32DD32D95
:102B8600670A031DC72DC82DD02D0030DD0000308B
:102B9600DC000030DB000030DA00DC17DD01DB2D65
:102BA6000030DD000030DC000030DB000030DA00F1
:102BB600680867020318E02DE12D252E661FE42D17
:102BC600E52DE92D8030DE005E08E6066808DE00A9
:102BD6005E08E9006708DE005E08E8006908DE00B6
:102BE6005E08E7005608DE005E08E9005A08DE00C7
:102BF6005E08D6006908DE005E08DA005708DE00C7
:102C06005E08E9005B08DE005E08D7006908DE00A2
:102C16005E08DB005808DE005E08E9005C08DE009E
:102C26005E08D8006908DE005E08DC005908DE0090
:102C36005E08E9005D08DE005E08D9006908DE006E
:102C46005E08DD00E9016708DE00DF015F08E100DC
:102C560068085E02E000031CE1036108803AFF0099
:102C660080307F02031D392E1A306002031C3C2E71
:102C76003D2E7A2E8312031359085804570456041E
:102C8600031D462E482E0130492E0030DE005E0818
:102C9600E9000030D9000030D8000030D7000030FD
:102CA600D6006708DE005E08E800822E691C5C2EEE
:102CB6005D2E662E6908DE0003105E0C0138DF000B
:102CC6005F08E900682E0310E90C561C6B2E6C2E6B
:102CD6006D2EE9170130DE00590DD90CD80CD70C32
:102CE600D60CDE0B6F2E0130DE005E08E80783127D
:102CF600031367086802031C812E822E592E661B59
:102D0600852E862ED12E6808031D8A2E8B2E942E94
:102D16000030D9000030D8000030D7000030D6008F
:102D2600FF2F5A08D6075B0803110318013E031943
:102D36009D2ED7075C0803110318013E0319A42E24
:102D4600D8075D0803110318013E0319AB2ED907F6
:102D5600591CAE2EAF2E852F691CB22EB32EBC2E5B
:102D66006908DE0003105E0C0138DF005F08E90029
:102D7600BE2E0310E90C561CC12EC22EC32EE91717
:102D86000130DE00590DD90CD80CD70CD60CDE0B51
:102D9600C52E0130DE005E08E807852F5908803A07
:102DA600FF005D08803A7F02031DE32E5C0858028F
:102DB600031DE32E5B085702031DE32E5A08560235
:102DC6000318E62EE72E3F2FFF30DE00FF30DF0030
:102DD600FF30E000FF30E1005A08E2005B08E30044
:102DE6005C08E4005D08E5005608E2025708031C8B
:102DF600570FFE2EFF2EE3025808031C580F042F10
:102E0600052FE4025908031C590F0A2F0B2FE50260
:102E16006208DE0763080318630F122F132FDF07FC
:102E260064080318640F182F192FE00765080318A4
:102E3600650AE1076108D9006008D8005F08D70075
:102E46005E08D6008030DE005E08E606E909E90A7B
:102E56006908031D2F2F302F4D2F0130D607003064
:102E660003180130D707003003180130D8070030A7
:102E760003180130D9074D2F5A08D6025B08031CE8
:102E86005B0FD7025C08031C5C0FD8025D08031CAD
:102E96005D0FD9025908580457045604031D542FD0
:102EA600552F812F6908031D592F5A2F812F003066
:102EB600D9000030D8000030D7000030D600FF2FF0
:102EC6000130DE000310D60DD70DD80DD90DDE0B5F
:102ED600652FE91F6F2F702F712F5614691C742FE1
:102EE600752F782F0314E90D7A2F0310E90D680862
:102EF60003197E2F7F2F812F0130E802D81F842FE0
:102F0600852F632FE701E91F892F8A2F982F6908DC
:102F16007F3903198F2F902F932FE701E70A982FF8
:102F2600561C962F972F982F902F670803199C2FC2
:102F36009D2FD12F0130D607003003180130D70757
:102F4600003003180130D807003003180130D907C4
:102F5600591CAE2FAF2FD12F5608DE005708DF00C1
:102F66005808E0005908E1000130E200610DE10C6B
:102F7600E00CDF0CDE0CE20BB92F6108D90060080B
:102F8600D8005F08D7005E08D600680A0319CC2F60
:102F9600CD2FD12F0130DE005E08E807680A03193D
:102FA600D52FD62FDB2F6808031DDA2FDB2FE92F4D
:102FB6000030D9000030D8000030D7000030D600ED
:102FC6006808031DE72FE82FE92FE601681CEC2FA0
:102FD600ED2FEF2FD817F32F7F30DE005E08D805D0
:102FE6006808DE0003105E0CDF005F08D900E61FEC
:0A2FF600FD2FFE2FFF2FD917080052
:1034D000760875047404730403196F2A702A722A1B
:1034E0008030F6060800F400F3013A307402031845
:1034F0007A2A7B2A832A30307402031C802A812A8C
:10350000832AF301F30A730C0800831203130C1FC0
:103510008A2A8B2A962A0C131E08F000700883163C
:103520000313DE00831203139F14972A000072080E
:103530008A00710E8300FE0E7E0E0900F5008312D4
:103540000313881075080A168A15E0230A168A15CF
:10355000831203130814C730F400AE2AF40BAD2A0B
:10356000B12AB22A831203130810C730F400B82A14
:10357000F40BB72ABB2ABC2A0800F60083120313F7
:10358000881076080A168A15E0230A168A1583120F
:10359000031308140730F5007D30F400F40BCE2A35
:1035A000F50BCE2A831203130810C730F400D82A73
:1035B000F40BD72ADB2ADC2A0800F6008312031357
:1035C000881076080A168A15E0230A168A158312CF
:1035D000031308140630F5003030F400F40BEE2A23
:1035E000F50BEE2A0000831203130810C730F40015
:1035F000F92AF40BF82AFC2AFD2A0800F6008312A7
:103600000313881476080A168A15E0230A168A1509
:103610008312031308140630F5003030F400F40B65
:103620000F2BF50B0F2B0000831203130810C7306C
:10363000F4001A2BF40B192B1D2B1E2B0800F9007C
:103640007903031D242B252B312B77087F3EF800AF
:103650007808FA007A080A168A15DD220A168A15F1
:10366000422B02307906031D362B372B422B77086D
:10367000BF3EF8007808FA007A080A168A15DD229B
:103680000A168A15080083120313A400A001A101E1
:103690007308F500F6017508A2007608A300241C43
:1036A000522B532B592B2208A0070318A10A2308D9
:1036B000A10701300310A20DA30DFF3E031D5A2BDD
:1036C0000310A40C2408031D662B672B4F2B210825
:1036D000F4002008F30008001430F8007930F700F7
:1036E000F70B702BF80B702B752B30300A168A15E0
:1036F000BD220A168A1530300A168A159E220A162D
:103700008A1530300A168A159E220A168A15383014
:103710000A168A15BD220A168A1510300A168A154D
:10372000DD220A168A1501300A168A15DD220A16CC
:103730008A1506300A168A15DD220A168A150F30F8
:103740000A168A15DD220A168A1508007308740401
:103750000319AB2BAC2BDB2BF801F80ABA2B013089
:103760000310F30DF40DFF3E031DB02B0130F700E5
:103770007708F807F41FBD2BBE2BAF2B7408760219
:10378000031DC42B73087502031CC72BC82BCE2B3B
:103790007308F5027408031CF603F60201300310E7
:1037A000F40CF30CFF3E031DCF2B0130F802031D78
:1037B000DA2BDB2BBE2B7608F4007508F30008002B
:1037C000F300731CE42BE52BE92B83120313051480
:1037D000EC2B831203130510F31CEF2BF02BF22BB1
:1037E0008514F32B8510731DF62BF72BF92B05157C
:1037F000FA2B0511F31DFD2BFE2B002C8515012C3A
:103800008511731E042C052C072C0516082C051297
:10381000F31E0B2C0C2C0E2C85160F2C8512731FEF
:10382000122C132C152C0517162C0513F31F192C0D
:103830001A2C1C2C85171D2C85130800F901FA0180
:10384000432C79087707A1007808A0000318A00A84
:10385000F91F2B2CA003831203132008A2002208B7
:10386000FF00210884000A168A1100200A168A1512
:103870000A168A15FE220A168A150130F90703185E
:10388000FA0A0030FA077908770783120313A100B8
:103890007808A0000318A00AF91F4F2CA003831278
:1038A00003132008A2002208FF00210884000A1642
:1038B0008A1100200A168A15003A031D602C612C1B
:1038C000212C080083120313A401A5012008210460
:1038D00003196B2C6C2CA32CA601A60A7A2C0130A0
:1038E0000310A00DA10DFF3E031D702C0130F90047
:1038F0007908A607A11F7D2C7E2C6F2C01300310A8
:10390000A40DA50DFF3E031D7F2C21082302031DDE
:103910008B2C20082202031C8E2C8F2C962C200826
:10392000A2022108031CA303A302241401300310E4
:10393000A10CA00CFF3E031D972C0130A602031D15
:10394000A22CA32C7E2C2508A1002408A00008008E
:103950000030730583120313A00000307405A1002A
:1039600080307505A2007F307605A300230822046D
:1039700021042004031DBD2CBE2CC62C0030F600F3
:103980000030F5000030F4000030F300003077051F
:10399000A00000307805A10080307905A2007F30BA
:1039A0007A05A3002308220421042004031DD92C36
:1039B000DA2CE22C0030FA000030F9000030F80078
:1039C0000030F7007A087606031DF02C790875069A
:1039D000031DF02C78087406031DF02C770873067D
:1039E0000319F32CF42CF62C0310F72C0314080005
:1039F000803083160313A306270883120313D9000C
:103A000083160313260883120313D80083160313A7
:103A1000250883120313D700831603132408831287
:103A20000313D60083160313230883120313DD0048
:103A300083160313220883120313DC008316031377
:103A4000210883120313DB0083160313200883125B
:103A50000313DA000A168A1178250A168A158312CA
:103A60000313590883160313A30083120313580882
:103A700083160313A200831203135708831603133C
:103A8000A10083120313560883160313A000080035
:103A9000760875047404730403194F2D502D952D69
:103AA00083120313A101A10A622D0130A0000310AB
:103AB000F30DF40DF50DF60DA00B572D0130A00000
:103AC0002008A107F61F652D662D552D76087A0270
:103AD000031D742D75087902031D742D7408780276
:103AE000031D742D73087702031C772D782D862D06
:103AF0007308F7027408031C740FF8027508031C9E
:103B0000750FF9027608031C760FFA0201300310D4
:103B1000F60CF50CF40CF30CFF3E031D872D013061
:103B2000A102031D942D952D662D7A08F6007908C3
:103B3000F5007808F4007708F3000800F901F61F93
:103B4000A22DA32DAA2DF509F609F50A0319F60AE7
:103B5000F901F90AF41FAD2DAE2DB32DF309F409C7
:103B6000F30A0319F40A730874040319B82DB92D64
:103B7000E82DF801F80AC72D01300310F30DF40DFC
:103B8000FF3E031DBD2D0130F7007708F807F41F35
:103B9000CA2DCB2DBC2D74087602031DD12D7308C0
:103BA0007502031CD42DD52DDB2D7308F502740886
:103BB000031CF603F60201300310F40CF30CFF3E75
:103BC000031DDC2D0130F802031DE72DE82DCB2D60
:103BD00079080319EC2DED2DF22DF509F609F50AFA
:103BE0000319F60A7608F4007508F300080000309F
:103BF00083120313A4000030A3000030A2000030A1
:103C0000A10076087504740473040319082E092EA4
:103C1000562EA501A50A192E0130A0000310F30DA0
:103C2000F40DF50DF60DA00B0E2E0130A0002008AE
:103C3000A507F61F1C2E1D2E0C2E0130A000031010
:103C4000A10DA20DA30DA40DA00B1F2E76087A02C4
:103C5000031D342E75087902031D342E7408780272
:103C6000031D342E73087702031C372E382E472E7F
:103C70007308F7027408031C740FF8027508031C1C
:103C8000750FF9027608031C760FFA022114013031
:103C90000310F60CF50CF40CF30CFF3E031D482E3C
:103CA0000130A502031D552E562E1D2E2408F600A8
:103CB0002308F5002208F4002108F300080083120D
:103CC0000313A501A11F652E662E6D2EA009A10963
:103CD000A00A0319A10AA501A50AA31F702E712E1F
:103CE0007A2EA209A309A20A0319A30A0130FA0035
:103CF0007A08A506A601A701200821040319812E30
:103D0000822EB92EA401A40A902E01300310A00D1A
:103D1000A10DFF3E031D862E0130FA007A08A4078C
:103D2000A11F932E942E852E01300310A60DA70DF2
:103D3000FF3E031D952E21082302031DA12E2008FE
:103D40002202031CA42EA52EAC2E2008A2022108BC
:103D5000031CA303A302261401300310A10CA00C22
:103D6000FF3E031DAD2E0130A402031DB82EB92E57
:103D7000942E25080319BD2EBE2EC32EA609A70911
:103D8000A60A0319A70A2708A1002608A000080010
:103D9000F500831603139F011D2FC13083120313F7
:103DA0009F00542FC530831203139F00542FC93036
:103DB000831203139F00542FCD30831203139F00EF
:103DC000542FD130831203139F00542FD530831208
:103DD00003139F00542FD930831203139F00542FD5
:103DE000DD30831203139F00542FE130831203133D
:103DF0009F00542FE530831203139F00542FE930A6
:103E0000831203139F00542FED30831203139F007E
:103E1000542FF130831203139F00542FF530831277
:103E200003139F00542FF930831203139F00542F64
:103E3000FD30831203139F00542F7508F300F40123
:103E40007408003A0319252FCD2E7308013A03197F
:103E5000D22E033A0319D72E013A0319DC2E073A62
:103E60000319E12E013A0319E62E033A0319EB2E4A
:103E7000013A0319F02E0F3A0319F52E013A0319EE
:103E8000FA2E033A0319FF2E013A0319042F073AB9
:103E90000319092F013A03190E2F033A0319132F9F
:103EA000013A0319182FCD2E831603130C17831212
:103EB00003130C139F1408000030730583120313BF
:103EC000A00000307405A10080307505A2007F308D
:103ED0007605A3002308220421042004031D712F6A
:103EE000722F7A2F0030F6000030F5000030F40019
:103EF0000030F30000307705A00000307805A10005
:103F000080307905A2007F307A05A30023082204BF
:103F100021042004031D8D2F8E2F962F0030FA00D0
:103F20000030F9000030F8000030F700F61F992F3C
:103F30009A2FBE2F0030A0000030A1000030A20058
:103F40008030A3007308A0027408031C740FA92F0B
:103F5000AA2FA1027508031C750FAF2FB02FA20264
:103F60007608031C760FB52FB62FA3022308F600A0
:103F70002208F5002108F4002008F300FA1FC12FE1
:103F8000C22FE62F0030A0000030A1000030A200B8
:103F90008030A3007708A0027808031C780FD12F87
:103FA000D22FA1027908031C790FD72FD82FA20294
:103FB0007A08031C7A0FDD2FDE2FA3022308FA00F4
:103FC0002208F9002108F8002008F7008030F606E2
:103FD0008030FA067A087602031DF82F79087502F8
:103FE000031DF82F78087402031DF82F7708730259
:103FF0000318FB2FFC2FFE2F0310FF2F03140800C4
:04400E00D4E0FFFFFC
:00000001FF
