:020000040000FA
:060000000A128A110E280D
:10000800FE00030EF2000408F3000A08F4000A12C6
:100018008A11C72F0A128A111128F80183120313B3
:10002800E501E60183010A128A15422D83120313A2
:100038002A088039AF002F08B4002A08AF002F071C
:10004800B0003008BA00A91F2A282B282C283A14F7
:100058003A0803193028312840283A0A031D352860
:1000680036283E280030AA000030A9000030A80039
:100078000030A700A91748280030AA000030A900BE
:100088000030A8000030A7002E088039AF002F08E4
:10009800B4062E08AF002F07B0003008B500AD1F1A
:1000A8005628572858283514350803195C285D2820
:1000B8006C28350A031D612862286A280030AE00C2
:1000C8000030AD000030AC000030AB00AD17742834
:1000D8000030AE000030AD000030AC000030AB00A6
:1000E80035080319782879287E283A08031D7D28C1
:1000F8007E2887280030AA000030A9000030A80018
:100108000030A7007A2B2708AF002F08F5002D082C
:100118000A128A15E7210A128A1176088312031334
:10012800C0007508BF003F08AF00B001B101B201BF
:100138003208B9003108B8003008B7002F08B600F7
:100148004008AF00B001B101B2013208BE00310869
:10015800BD003008BC002F08BB002808AF002F08DE
:10016800F5002C080A128A15E7210A128A11760866
:1001780083120313C0007508BF003F08AF00B00129
:10018800B101B2012F08B607300803110318013E68
:100198000319CF28B707310803110318013E0319C3
:1001A800D628B807320803110318013E0319DD28C1
:1001B800B9074008AF00B001B101B2012F08BB0771
:1001C800300803110318013E0319EB28BC07310856
:1001D80003110318013E0319F228BD073208031161
:1001E8000318013E0319F928BE072908AF002F0894
:1001F800F5002B080A128A15E7210A128A117608D7
:1002080083120313C0007508BF003F08AF00B00198
:10021800B101B2012F08B607300803110318013ED7
:1002280003191729B707310803110318013E0319E9
:100238001E29B807320803110318013E031925299E
:10024800B9074008AF00B001B101B2012F08BB07E0
:10025800300803110318013E03193329BC0731087C
:1002680003110318013E03193A29BD073208031187
:100278000318013E03194129BE070830AF000310D7
:10028800B60DB70DB80DB90DAF0B43292808AF004F
:100298002F08F5002B080A128A15E7210A128A117D
:1002A800760883120313C0007508BF003F08AF002B
:1002B8004008B000B101B2012F08B6073008031199
:1002C8000318013E03196929B707310803110318F8
:1002D800013E03197029B807320803110318013EBB
:1002E80003197729B9072708AF002F08F5002C084C
:1002F8000A128A15E7210A128A1176088312031353
:10030800C0007508BF003F08AF004008B000B10149
:10031800B2012F08B607300803110318013E03196C
:100328009629B707310803110318013E03199D29BF
:10033800B807320803110318013E0319A429B907A5
:100348000830AF000310B60DB70DB80DB90DAF0BDF
:10035800A6292708AF002F08F5002B080A128A15CE
:10036800E7210A128A11760883120313C000750860
:10037800BF003F08AF004008B000B101B2012F082C
:10038800B607300803110318013E0319CC29B70733
:10039800310803110318013E0319D329B80732089D
:1003A80003110318013E0319DA29B9072808AF0019
:1003B8002F08F5002D080A128A15E7210A128A115A
:1003C800760883120313C0007508BF003F08AF000A
:1003D8004008B000B101B2012F08BB073008031173
:1003E8000318013E0319F929BC0731080311031842
:1003F800013E0319002ABD07320803110318013E04
:100408000319072ABE072908AF002F08F5002C0892
:100418000A128A15E7210A128A1176088312031331
:10042800C0007508BF003F08AF004008B000B10128
:10043800B2012F08BB07300803110318013E031946
:10044800262ABC07310803110318013E03192D2A77
:10045800BD07320803110318013E0319342ABE07E9
:100468002908AF002F08F5002D080A128A15E72180
:100478000A128A11760883120313C0007508BF0098
:100488003F08AF004008B000B101B20108300310C6
:10049800AF0DB00DB10DB20DFF3E031D4B2A2F0855
:1004A800BB07300803110318013E03195C2ABC0777
:1004B800310803110318013E0319632ABD073208E6
:1004C80003110318013E03196A2ABE073608AF0054
:1004D8003708B0003808B1003908B20018300310E6
:1004E800B20CB10CB00CAF0CFF3E031D732A2F08E1
:1004F800BB07300803110318013E0319842ABC07FF
:10050800310803110318013E03198B2ABD0732086D
:1005180003110318013E0319922ABE070830AF00E1
:100528000310B60DB70DB80DB90DAF0B942A3A08E4
:100538003507AF00B001B00D2F08823EBF0030086C
:100548000318013EFF3EC000C62A0130AF00031069
:10055800BB0DBC0DBD0DBE0DAF0BAB2AB91FB52A27
:10056800B62AB72A3B140130AF000310B60DB70DF9
:10057800B80DB90DAF0BB92AFF30BF070318C00A71
:10058800FF30C007BD1FC92ACA2AA92AB501B91F49
:10059800CE2ACF2AEB2AFF303605AF00FF303705C9
:1005A800B000FF303805B1007F303905B20032089D
:1005B800310430042F040319E22AE32AE62AB5019C
:1005C800B50AEB2A3B1CE92AEA2AEB2AE32A350872
:1005D8000319EF2AF02A212B0130BB07003003183A
:1005E8000130BC07003003180130BD070030031884
:1005F8000130BE073E1C012B022B212B3B08AF000C
:100608003C08B0003D08B1003E08B2000130B3001C
:10061800320DB20CB10CB00CAF0CB30B0C2B320872
:10062800BE003108BD003008BC002F08BB000130F7
:10063800BF070318C00A0030C0074008803AFF000F
:1006480080307F02031D2A2BFF303F02031C2D2B15
:100658002E2B392B7F3083120313BE008030BD0050
:100668000030BC000030BB006E2B8312031340081F
:10067800803AFF0080307F02031D442B01303F0287
:100688000318472B482B542B003083120313BE004A
:100698000030BD000030BC000030BB00B4016E2B40
:1006A800831203133F08AF002F08BA00FF30BB05C1
:1006B800FF30BC057F30BD050030BE053A1C652BF8
:1006C800662B672BBD173A08AF0003102F0CB0003C
:1006D8003008BE003408AF002F08BE043E08AA0048
:1006E8003D08A9003C08A8003B08A70008008312A1
:1006F80003134F08AE004E08AD004D08AC004C087F
:10070800AB004230AA00C830A9000030A800003071
:10071800A7000A128A111A200A128A1183120313D7
:100728002A08C4002908C3002808C2002708C100F5
:100738000A128A1576230A128A11831203134208B1
:10074800D8004108D7000A30A0000030A10058089E
:10075800A3005708A2000A128A15B2220A128A11A7
:10076800831203132108D2002008D1000A30A00008
:100778000030A1005808A3005708A2000A128A15E1
:100788000D230A128A11831203132108D8002008A6
:10079800D7000A30A0000030A1005808A30057086D
:1007A800A2000A128A15B2220A128A1183120313AE
:1007B8002108D4002008D3000A30A0000030A1008E
:1007C8005808A3005708A2000A128A150D230A1216
:1007D8008A11831203132108D6002008D5009E2C05
:1007E8000730D0005008A10002300A128A15C12132
:1007F8000A128A1110300A128A1510220A128A1156
:10080800C32C0730D0005008A10002300A128A1504
:10081800C1210A128A1108300A128A1510220A12F6
:100828008A11C32C0730D0005008A10002300A12E8
:100838008A15C1210A128A110C300A128A1510224F
:100848000A128A11C32C0730D0005008A1000230C8
:100858000A128A15C1210A128A1112300A128A153F
:1008680010220A128A11C32C0730D0005008A100A8
:1008780002300A128A15C1210A128A1114300A128A
:100888008A1510220A128A11C32C0730D00050088A
:10089800A10002300A128A15C1210A128A111630E3
:1008A8000A128A1510220A128A11C32C0730D000A6
:1008B8005008A10002300A128A15C1210A128A11B1
:1008C80018300A128A1510220A128A11C32C07300E
:1008D800D0005008A10002300A128A15C1210A125C
:1008E8008A111A300A128A1510220A128A11C32C88
:1008F8000730D0005008A10002300A128A15C12121
:100908000A128A111C300A128A1510220A128A1138
:10091800C32C0730D0005008A10002300A128A15F3
:10092800C1210A128A111E300A128A1510220A12CF
:100938008A11C32C5608003A0319A32CC32C550856
:10094800003A0319F42B013A0319052C033A031949
:10095800162C013A0319272C073A0319382C013AA7
:100968000319492C033A03195A2C013A03196B2C21
:100978000F3A03197C2C013A03198D2CC32C0E3025
:100988000A128A1510220A128A11102D10300A1222
:100998008A1510220A128A117D2D08300A128A152A
:1009A80010220A128A117D2D0C300A128A15102283
:1009B8000A128A117D2D12300A128A1510220A1283
:1009C8008A117D2D14300A128A1510220A128A11F2
:1009D8007D2D16300A128A1510220A128A117D2DD1
:1009E80018300A128A1510220A128A117D2D1A301F
:1009F8000A128A1510220A128A117D2D1C300A1239
:100A08008A1510220A128A117D2D1E300A128A15A3
:100A180010220A128A117D2D831203135408003AFA
:100A28000319172D7D2D5308003A0319CA2C013AD2
:100A38000319D12C033A0319D82C013A0319DF2CD6
:100A4800073A0319E62C013A0319ED2C033A031966
:100A5800F42C013A0319FB2C0F3A0319022D013A21
:100A68000319092D7D2D10300A128A1510220A1239
:100A78008A11A42D08300A128A1510220A128A1126
:100A8800A42D0C300A128A1510220A128A11A42DDC
:100A980012300A128A1510220A128A11A42D143053
:100AA8000A128A1510220A128A11A42D16300A1267
:100AB8008A1510220A128A11A42D18300A128A15D2
:100AC80010220A128A11A42D1A300A128A1510222D
:100AD8000A128A11A42D1C300A128A1510220A1231
:100AE8008A11A42D1E300A128A1510220A128A11A0
:100AF800A42D831203135208003A0319842DA42D40
:100B08005108003A0319372D013A03193E2D033ACB
:100B18000319452D013A03194C2D073A0319532D92
:100B2800013A03195A2D033A0319612D013A0319A1
:100B3800682D0F3A03196F2D013A0319762DA42D4C
:100B480020300A128A1510220A128A11080083120C
:100B580003134F08AE004E08AD004D08AC004C081A
:100B6800AB004230AA00C830A9000030A80000300D
:100B7800A7000A128A111A200A128A118312031373
:100B88002A08C4002908C3002808C2002708C10091
:100B98000A128A1576230A128A118312031342084D
:100BA800D7004108D6000A30A0000030A10057083D
:100BB800A3005608A2000A128A15B2220A128A1144
:100BC800831203132108D1002008D0000A30A000A6
:100BD8000030A1005708A3005608A2000A128A157F
:100BE8000D230A128A11831203132108D700200843
:100BF800D6000A30A0000030A1005708A30056080C
:100C0800A2000A128A15B2220A128A118312031349
:100C18002108D3002008D2000A30A0000030A1002B
:100C28005708A3005608A2000A128A150D230A12B3
:100C38008A11831203132108D5002008D400BA2E84
:100C4800A101A10A02300A128A15C1210A128A11C9
:100C580010300A128A1510220A128A11DF2EA101F9
:100C6800A10A02300A128A15C1210A128A11083013
:100C78000A128A1510220A128A11DF2EA101A10A6E
:100C880002300A128A15C1210A128A110C300A127E
:100C98008A1510220A128A11DF2EA101A10A023038
:100CA8000A128A15C1210A128A1112300A128A15EB
:100CB80010220A128A11DF2EA101A10A02300A129B
:100CC8008A15C1210A128A1114300A128A151022B3
:100CD8000A128A11DF2EA101A10A02300A128A150E
:100CE800C1210A128A1116300A128A1510220A1214
:100CF8008A11DF2EA101A10A02300A128A15C12128
:100D08000A128A1118300A128A1510220A128A1138
:100D1800DF2EA101A10A02300A128A15C1210A1286
:100D28008A111A300A128A1510220A128A11DF2E25
:100D3800A101A10A02300A128A15C1210A128A11D8
:100D48001C300A128A1510220A128A11DF2EA101FC
:100D5800A10A02300A128A15C1210A128A111E300C
:100D68000A128A1510220A128A11DF2E5508003A33
:100D78000319BF2EDF2E5408003A0319242E013A16
:100D88000319332E033A0319422E013A0319512E3F
:100D9800073A0319602E013A03196F2E033A031913
:100DA8007E2E013A03198D2E0F3A03199C2E013A13
:100DB8000319AB2EDF2E0E300A128A1510220A12E2
:100DC8008A112C2F10300A128A1510220A128A1141
:100DD800992F08300A128A1510220A128A11992F9F
:100DE8000C300A128A1510220A128A11992F123011
:100DF8000A128A1510220A128A11992F14300A121F
:100E08008A1510220A128A11992F16300A128A1589
:100E180010220A128A11992F18300A128A151022E4
:100E28000A128A11992F1A300A128A1510220A12E8
:100E38008A11992F1C300A128A1510220A128A1157
:100E4800992F1E300A128A1510220A128A11992F18
:100E5800831203135308003A0319332F992F5208AA
:100E6800003A0319E62E013A0319ED2E033A031945
:100E7800F42E013A0319FB2E073A0319022F013AFF
:100E88000319092F033A0319102F013A0319172FD1
:100E98000F3A03191E2F013A0319252F992F1030E5
:100EA8000A128A1510220A128A11C02F08300A1253
:100EB8008A1510220A128A11C02F0C300A128A15BC
:100EC80010220A128A11C02F12300A128A15102213
:100ED8000A128A11C02F14300A128A1510220A1217
:100EE8008A11C02F16300A128A1510220A128A1186
:100EF800C02F18300A128A1510220A128A11C02F20
:100F08001A300A128A1510220A128A11C02F1C30B0
:100F18000A128A1510220A128A11C02F1E300A12CC
:100F28008A1510220A128A11C02F8312031351083E
:100F3800003A0319A02FC02F5008003A0319532F65
:100F4800013A03195A2F033A0319612F013A031979
:100F5800682F073A03196F2F013A0319762F033ABE
:100F680003197D2F013A0319842F0F3A03198B2F88
:100F7800013A0319922FC02F20300A128A15102225
:100F88000A128A110800831203130C1FCC2FCD2FCD
:100F9800F62F0C13E42F1E08F0007008E6001F0857
:100FA800C33930389F00F801F80AF42F1E08F00002
:100FB8007008E5001F08C33934389F00F801F42F82
:100FC8007808F000F1017108003A0319EC2FF42FAA
:100FD8007008003A0319CF2F013A0319DA2FF42FBA
:100FE8009F14F72F000074088A0073088400720E9B
:100FF8008300FE0E7E0E090008308A000408840A69
:101008008207003443344F344E345434003453345C
:1010180050343134003453345034323400342E34A4
:10102800003430340034333400343434003435344C
:10103800003436340034373400343834003439342A
:06104800003456340034B0
:10128000F70083120313881077080A128A15742254
:101290000A128A15831203130814C730F600502966
:1012A000F60B4F2953295429831203130810C73012
:1012B000F6005A29F60B59295D295E290800831288
:1012C0000313A000881020080A128A1574220A123B
:1012D0008A158312031308140730F7007D30F600D7
:1012E000F60B7029F70B7029831203130810C7300F
:1012F000F6007A29F60B79297D297E2908008312C8
:101300000313A000881020080A128A1574220A12FA
:101310008A158312031308140630F7003030F600E4
:10132000F60B9029F70B9029000083120313081085
:10133000C730F6009B29F60B9A299E299F290800A1
:1013400083120313A000881420080A128A1574223D
:101350000A128A158312031308140630F70030307E
:10136000F600F60BB129F70BB12900008312031325
:101370000810C730F600BC29F60BBB29BF29C029CD
:10138000080083120313A3002303031DC829C929DE
:10139000D52921087F3EA2002208A40024080A12B1
:1013A0008A157F210A128A15E62902302306031DB9
:1013B000DA29DB29E6292108BF3EA2002208A40081
:1013C00024080A128A157F210A128A15080083123E
:1013D0000313A600A201A3017508A000A101200823
:1013E000A4002108A500261CF629F729FD292408B8
:1013F000A2070318A30A2508A30701300310A40DB0
:10140000A50DFF3E031DFE290310A60C2608031D93
:101410000A2A0B2AF3292308F6002208F5000800FF
:1014200083120313A300A101A2012B2A2108230781
:1014300084000A128A1500200A128A150A128A15D7
:10144000A0210A128A15013083120313A107031881
:10145000A20A0030A2072108230784000A128A1575
:1014600000200A128A15003A031D372A382A162A44
:101470000800143083120313A2007930A100A10BDD
:101480003F2AA20B3F2A30300A128A155F210A1226
:101490008A1530300A128A1540210A128A15303016
:1014A0000A128A1540210A128A1538300A128A1542
:1014B0005F210A128A1510300A128A157F210A123A
:1014C0008A1501300A128A157F210A128A15063000
:1014D0000A128A157F210A128A150C300A128A15FF
:1014E0007F210A128A150800F500751C782A792ACE
:1014F0007D2A831203130514802A83120313051017
:10150000F51C832A842A862A8514872A8510751D4E
:101510008A2A8B2A8D2A05158E2A0511F51D912AF6
:10152000922A942A8515952A8511751E982A992A3A
:101530009B2A05169C2A0512F51E9F2AA02AA22A7C
:101540008516A32A8512751FA62AA72AA92A051778
:10155000AA2A0513F51FAD2AAE2AB02A8517B12A8B
:1015600085130800F70183120313A31FB82AB92AB1
:10157000C02AA209A309A20A0319A30AF701F70ABC
:10158000A11FC32AC42AC92AA009A109A00A0319B4
:10159000A10A200821040319CE2ACF2AFE2AF60127
:1015A000F60ADD2A01300310A00DA10DFF3E031D38
:1015B000D32A0130F5007508F607A11FE02AE12AB9
:1015C000D22A21082302031DE72A20082202031C35
:1015D000EA2AEB2AF12A2008A2022108031CA3030D
:1015E000A30201300310A10CA00CFF3E031DF22A40
:1015F0000130F602031DFD2AFE2AE12A77080319AD
:10160000022B032B082BA209A309A20A0319A30A80
:101610002308A1002208A000080083120313A501DB
:10162000A11F132B142B1B2BA009A109A00A03191E
:10163000A10AA501A50AA31F1E2B1F2B282BA20957
:10164000A309A20A0319A30A0130F5007508A5062B
:10165000A601A7012008210403192F2B302B672B8B
:10166000A401A40A3E2B01300310A00DA10DFF3EE2
:10167000031D342B0130F5007508A407A11F412B71
:10168000422B332B01300310A60DA70DFF3E031D87
:10169000432B21082302031D4F2B20082202031C89
:1016A000522B532B5A2B2008A2022108031CA30300
:1016B000A302261401300310A10CA00CFF3E031D51
:1016C0005B2B0130A402031D662B672B422B2508E0
:1016D00003196B2B6C2B712BA609A709A60A0319FA
:1016E000A70A2708A1002608A000080003108312FB
:1016F0000313430D440DC5004508CB004B08031DE3
:10170000822B832B8C2B0030C4000030C3000030B0
:10171000C2000030C100F12B4108C5004208C600DC
:101720004308C7004408C8001F300310C80CC70C8A
:10173000C60CC50CFF3E031D952B4508C900490882
:10174000CA00C317FF30C105FF30C205FF30C30513
:101750000030C4059630CB02CB1FAF2BB02BCA2B69
:101760004B08803A973E0318B62BB72BB82B832B28
:1017700001300310C40CC30CC20CC10CFF3E031D8E
:10178000B92B0130C5004508CB07031DC82BC92B59
:10179000B82BE12B20304B02031CCF2BD02BDC2BA2
:1017A000832B0130C5000310C10DC20DC30DC40D44
:1017B000C50BD32B0130CB024B08031DE02BE12BD3
:1017C000D12B4A080319E52BE62BF12BC109C209DD
:1017D000C309C409C10A0319C20A0319C30A0319B8
:1017E000C40A0800F700831603139F01472CC13079
:1017F000831203139F007E2CC530831203139F00B6
:101800007E2CC930831203139F007E2CCD308312AF
:1018100003139F007E2CD130831203139F007E2C74
:10182000D530831203139F007E2CD930831203130B
:101830009F007E2CDD30831203139F007E2CE1304D
:10184000831203139F007E2CE530831203139F0045
:101850007E2CE930831203139F007E2CED3083121F
:1018600003139F007E2CF130831203139F007E2C04
:10187000F530831203139F007E2CF930831203137B
:101880009F007E2CFD30831203139F007E2C77086F
:10189000F500F6017608003A03194F2CF72B75086E
:1018A000013A0319FC2B033A0319012C013A0319DD
:1018B000062C073A03190B2C013A0319102C033A92
:1018C0000319152C013A03191A2C0F3A03191F2C6E
:1018D000013A0319242C033A0319292C013A03195C
:1018E0002E2C073A0319332C013A0319382C033AEA
:1018F00003193D2C013A0319422CF72B83160313CD
:101900000C17831203130C139F1408008312031384
:10191000A800280803198D2C8E2CA22CA31F912C13
:10192000922CA22C2009AA002109AB002209AC00AC
:101930002309AD00AA0A0319AB0A0319AC0A03195B
:10194000AD0AAA2C2308AD002208AC002108AB0088
:101950002008AA002308220421042004031DB12C1E
:10196000B22CBB2C0030A3000030A2000030A1003C
:101970000030A000412D9630A4002408A900CD2CF1
:101980000130A4002408A90701300310AD0CAC0CF1
:10199000AB0CAA0CFF3E031DC52CFE302D05031D0C
:1019A000D22CD32CC02CEF2C0130A4002408A90782
:1019B0000130AA07003003180130AB0700300318CC
:1019C0000130AC07003003180130AD0701300310BF
:1019D000AD0CAC0CAB0CAA0CFF3E031DE72CFF308A
:1019E0002D05031DF42CF52CD42C012D0130A9025A
:1019F0000130A4000310AA0DAB0DAC0DAD0DA40B6E
:101A0000FA2CAC1B042D052D0B2D023029020318D6
:101A10000A2D0B2DF62C29180E2D0F2D172DFF300A
:101A2000AA05FF30AB057F30AC05FF30AD050310D4
:101A3000A90C2908A400A501A601A70118300310CC
:101A4000A40DA50DA60DA70DFF3E031D1F2D2408F7
:101A5000AA042508AB042608AC042708AD0428080E
:101A60000319332D342D392DA31F372D382D392D42
:101A7000AD172D08A3002C08A2002B08A1002A08EE
:101A8000A000080021308316031386008316031775
:101A900088011430890083160313850188019F177C
:101AA0001F129F12C130831203139F00C0308B009E
:101AB0000A128A1539220A128A150D300A128A155D
:101AC000F2230A128A15023083120313D90059082F
:101AD000A10001300A128A15C1210A128A150630A6
:101AE0000A128A1510220A128A150830831203136B
:101AF000D9005908A10001300A128A15C1210A1221
:101B00008A150A300A128A1510220A128A150D3017
:101B100083120313D9005908A10001300A128A1553
:101B2000C1210A128A1501300A128A1510220A12DE
:101B30008A15423083120313B1004C30B0000030DC
:101B4000AF000030AE006608D900DA01DB01DC012D
:101B50005C08A3005B08A2005A08A1005908A00075
:101B600001300A128A1586240A128A158312031379
:101B70002308B5002208B4002108B3002008B200F1
:101B80000A128A1523260A128A15831203133108B2
:101B9000E0003008DF002F08DE002E08DD004230B4
:101BA000B1004C30B0000030AF000030AE0065082E
:101BB000D900DA01DB01DC015C08A3005B08A200AC
:101BC0005A08A1005908A00001300A128A1586247B
:101BD0000A128A15831203132308B5002208B400E1
:101BE0002108B3002008B2000A128A1523260A121F
:101BF0008A15831203133108E4003008E3002F082C
:101C0000E2002E08E1006008CF005F08CE005E0809
:101C1000CD005D08CC000A128A11AB250A128A1584
:101C2000831203136408CF006308CE006208CD005E
:101C30006108CC000A128A117B230A128A15992D99
:101C40000A128A110E288312031335088039B60050
:101C50003608BF003508B6003607B7003708C6009B
:101C6000B41F332E342E352E461446080319392E50
:101C70003A2E4A2E460A031D3E2E3F2E472E003096
:101C8000B5000030B4000030B3000030B200B4172B
:101C9000B501522E0030B5000030B4000030B30062
:101CA0000030B20031088039B6003608BF0631086E
:101CB000B6003607B7003708C700B01F602E612E88
:101CC000622E471447080319662E672E772E470A9F
:101CD000031D6B2E6C2E742E0030B1000030B0004E
:101CE0000030AF000030AE00B017B1017F2E0030E1
:101CF000B1000030B0000030AF000030AE0031085D
:101D000030042F042E04031D862E872EA02E0030B3
:101D1000B5000030B4000030B3000030B2008030B5
:101D2000B4047F30B5043F08B6003608B504350862
:101D3000B1003408B0003308AF003208AE00FF2F06
:101D40004608031DA42EA52EAE2E0030B100003093
:101D5000B0000030AF000030AE00FF2F4608B600E4
:101D6000B7013708B90047083602B800031CB903A9
:101D700038087F3EC00039080318013E003EC1000C
:101D80003508BE003408BD003308BC003208BB0073
:101D90000030B5000030B4000030B3000030B200B5
:101DA0000030C5000030C4000030C3000030C20065
:101DB000C701242F47080319DE2EDF2EFF2E013026
:101DC000B6000310BB0DBC0DBD0DBE0DB60BE12E54
:101DD0000130B6000310B20DB30DB40DB50DB60B46
:101DE000EA2EC51FF42EF52EF62E32140130B60061
:101DF0000310C20DC30DC40DC50DB60BF82E31086E
:101E00003E02031D0D2F30083D02031D0D2F2F082C
:101E10003C02031D0D2F2E083B02031C102F112F17
:101E2000202F45172E08BB022F08031C2F0FBC02C2
:101E30003008031C300FBD023108031C310FBE02F5
:101E40000130B6003608C7071A304702031C292F95
:101E50002A2FDA2E3E083D043C043B040319312F9F
:101E6000322F512F4214512F0130B6000310B20D02
:101E7000B30DB40DB50DB60B362FC51F402F412F36
:101E8000422F32140130B6000310C20DC30DC40D31
:101E9000C50DB60B442FFF30C0070318C10AFF3031
:101EA000C107B41F542F552F342FC701C51F592FF9
:101EB0005A2F762FFF304205B600FF304305B7009A
:101EC000FF304405B8007F304505B90039083804B3
:101ED0003704360403196D2F6E2F712FC701C70AFF
:101EE000762F321C742F752F762F6E2F470803190B
:101EF0007A2F7B2FAC2F0130B2070030031801304E
:101F0000B307003003180130B40700300318013064
:101F1000B507351C8C2F8D2FAC2F3208B600330837
:101F2000B7003408B8003508B9000130BA00390DDF
:101F3000B90CB80CB70CB60CBA0B972F3908B50012
:101F40003808B4003708B3003608B2000130C007C3
:101F50000318C10A0030C1074108803AFF008030F1
:101F60007F02031DB52FFF304002031CB82FB92F8D
:101F7000C72FFF3083120313C0000030C1000030B0
:101F8000B5000030B4000030B3000030B20083125E
:101F900003134108803AFF0080307F02031DD22FD7
:101FA000013040020318D52FD62FE32F83120313DD
:101FB000C001C1010030B5000030B4000030B300F2
:101FC0000030B200BF01831203134008B600360888
:101FD000C600461CEC2FED2FEF2FB417F32F7F30E8
:101FE000B6003608B4054608B6000310360CB70034
:101FF0003708B5003F08B6003608B504972E08002C
:04400E00D4E0FFFFFC
:00000001FF
