:020000040000FA
:060000000A128A110C280F
:10000800FE00030EF1000A08F2000A128A11662A9D
:100018000A128A110F2883120313A60183010A12F8
:100028008A111628213083160313860083160317B6
:1000380088011430890083160313850188019F17EE
:100048001F129F12C130831203139F00C0308B0010
:100058000F30A0002008A5000A128A1188210A1270
:100068008A110D300A128A11B6200A128A11053037
:1000780083120313A0002008F70001300A128A1126
:10008800C2210A128A1131300A128A1127220A1251
:100098008A110A3083120313A0002008F7000130E8
:1000A8000A128A11C2210A128A1132300A128A11DE
:1000B80027220A128A11103083120313A000200885
:1000C800F70001300A128A11C2210A128A1133304C
:1000D8000A128A1127220A128A1104308312031382
:1000E800A0002008F70002300A128A11C2210A1261
:1000F8008A1134300A128A1127220A128A11093009
:1001080083120313A0002008F70002300A128A1194
:10011800C2210A128A1135300A128A1127220A12BC
:100128008A110F3083120313A0002008F700023051
:100138000A128A11C2210A128A1136300A128A1149
:1001480027220A128A11831203132608A000200806
:10015800A3002608A0002008A4000000A7280A126F
:100168008A110C28F500831603139F010B29C1304F
:10017800831203139F004229C530831203139F0083
:100188004229C930831203139F004229CD308312BC
:1001980003139F004229D130831203139F00422981
:1001A800D530831203139F004229D93083120313D9
:1001B8009F004229DD30831203139F004229E1305A
:1001C800831203139F004229E530831203139F0013
:1001D8004229E930831203139F004229ED3083122C
:1001E80003139F004229F130831203139F00422911
:1001F800F530831203139F004229F9308312031349
:100208009F004229FD30831203139F00422975087D
:10021800F300F4017408003A03191329BB28730882
:10022800013A0319C028033A0319C528013A0319EA
:10023800CA28073A0319CF28013A0319D428033AE0
:100248000319D928013A0319DE280F3A0319E328BC
:10025800013A0319E828033A0319ED28013A03196A
:10026800F228073A0319F728013A0319FC28033A38
:1002780003190129013A03190629BB288316031318
:100288000C17831203130C139F140800F300731C3C
:100298004E294F2953298312031305145629831213
:1002A80003130510F31C59295A295C2985145D2963
:1002B8008510731D602961296329051564290511B5
:1002C800F31D672968296A2985156B298511731E0D
:1002D8006E296F297129051672290512F31E7529D1
:1002E80076297829851679298512731F7C297D2915
:1002F8007F29051780290513F31F83298429862957
:1003080085178729851308001430F8007930F7001D
:10031800F70B8C29F80B8C29912930300A128A1195
:1003280007220A128A1130300A128A1147220A1249
:100338008A1130300A128A1147220A128A1138307B
:100348000A128A1107220A128A1110300A128A1117
:10035800E6210A128A1101300A128A11E6210A12CC
:100368008A1106300A128A11E6210A128A110F3000
:100378000A128A11E6210A128A110800F900790383
:10038800031DC729C829D42977087F3EF8007808B3
:10039800FA007A080A128A11E6210A128A11E52956
:1003A80002307906031DD929DA29E5297708BF3EE5
:1003B800F8007808FA007A080A128A11E6210A1267
:1003C8008A110800F60083120313881076080A12AF
:1003D8008A114A210A128A1183120313081406305B
:1003E800F5003030F400F40BF729F50BF72900007D
:1003F800831203130810C730F400022AF40B012AF1
:10040800052A062A0800F6008312031388107608C6
:100418000A128A114A210A128A1183120313081434
:100428000730F5007D30F400F40B182AF50B182A74
:10043800831203130810C730F400222AF40B212A70
:10044800252A262A0800F600831203138814760842
:100458000A128A114A210A128A11831203130814F4
:100468000730F5007D30F400F40B382AF50B382AF4
:10047800831203130810C730F400422AF40B412AF0
:10048800452A462A0800F5008312031388107508C8
:100498000A128A114A210A128A11831203130814B4
:1004A800C730F400572AF40B562A5A2A5B2A8312BB
:1004B80003130810C730F400612AF40B602A642A79
:1004C800652A0800831203130C1F6B2A6C2A732AEF
:1004D8000C131E08F0007008A6009F14742A000070
:0E04E80072088A00710E8300FE0E7E0E09005F
:04400E00D4E0FFFFFC
:00000001FF
