:020000040000FA
:060000000A128A110E280D
:10000800FE00030EF2000408F3000A08F4000A12C6
:100018008A159A280A128A111128F701F801831201
:100028000313E501E601E701E80183010A128A15D5
:100038004E2B831203132A088039AF002F08B4000F
:100048002A08AF002F07B0003008BA00A91F2D28D2
:100058002E282F283A143A0803193328342843281D
:100068003A0A031D3828392841280030AA000030F0
:10007800A9000030A8000030A700A9174B280030BD
:10008800AA000030A9000030A8000030A7002E0800
:100098008039AF002F08B4062E08AF002F07B00034
:1000A8003008B500AD1F59285A285B283514350883
:1000B80003195F2860286F28350A031D64286528FE
:1000C8006D280030AE000030AD000030AC000030CC
:1000D800AB00AD1777280030AE000030AD0000301F
:1000E800AC000030AB00350803197B287C28812838
:1000F8003A08031D802881288A280030AA00003089
:10010800A9000030A8000030A7007D2B2708AF0009
:100118002F08F5002D080A128A11CA270A128A1117
:10012800760883120313C0007508BF003F08AF00AC
:10013800B001B101B2013208B9003108B800300885
:10014800B7002F08B6004008AF00B001B101B201F6
:100158003208BE003108BD003008BC002F08BB00C3
:100168002808AF002F08F5002C080A128A11CA27A0
:100178000A128A11760883120313C0007508BF009B
:100188003F08AF00B001B101B2012F08B60730082F
:1001980003110318013E0319D228B70731080311C8
:1001A8000318013E0319D928B807320803110318A8
:1001B800013E0319E028B9074008AF00B001B101BA
:1001C800B2012F08BB07300803110318013E0319B9
:1001D800EE28BC07310803110318013E0319F5285E
:1001E800BD07320803110318013E0319FC28BE0796
:1001F8002908AF002F08F5002B080A128A11CA2710
:100208000A128A11760883120313C0007508BF000A
:100218003F08AF00B001B101B2012F08B60730089E
:1002280003110318013E03191A29B70731080311EE
:100238000318013E03192129B807320803110318CE
:10024800013E03192829B9074008AF00B001B101E0
:10025800B2012F08BB07300803110318013E031928
:100268003629BC07310803110318013E03193D293B
:10027800BD07320803110318013E03194429BE07BC
:100288000830AF000310B60DB70DB80DB90DAF0BA0
:1002980046292808AF002F08F5002B080A128A11F2
:1002A800CA270A128A11760883120313C000750838
:1002B800BF003F08AF004008B000B101B2012F08ED
:1002C800B607300803110318013E03196C29B70754
:1002D800310803110318013E03197329B8073208BE
:1002E80003110318013E03197A29B9072708AF003B
:1002F8002F08F5002C080A128A11CA270A128A1137
:10030800760883120313C0007508BF003F08AF00CA
:100318004008B000B101B2012F08B6073008031138
:100328000318013E03199929B70731080311031867
:10033800013E0319A029B807320803110318013E2A
:100348000319A729B9070830AF000310B60DB70D78
:10035800B80DB90DAF0BA9292708AF002F08F50074
:100368002B080A128A11CA270A128A1176088312E0
:100378000313C0007508BF003F08AF004008B00075
:10038800B101B2012F08B607300803110318013E66
:100398000319CF29B707310803110318013E0319C0
:1003A800D629B807320803110318013E0319DD29BD
:1003B800B9072808AF002F08F5002D080A128A117E
:1003C800CA270A128A11760883120313C000750817
:1003D800BF003F08AF004008B000B101B2012F08CC
:1003E800BB07300803110318013E0319FC29BC0799
:1003F800310803110318013E0319032ABD07320807
:1004080003110318013E03190A2ABE072908AF0081
:100418002F08F5002C080A128A11CA270A128A1115
:10042800760883120313C0007508BF003F08AF00A9
:100438004008B000B101B2012F08BB073008031112
:100448000318013E0319292ABC07310803110318B0
:10045800013E0319302ABD07320803110318013E73
:100468000319372ABE072908AF002F08F5002D0801
:100478000A128A11CA270A128A11760883120313EC
:10048800C0007508BF003F08AF004008B000B101C8
:10049800B20108300310AF0DB00DB10DB20DFF3E23
:1004A800031D4E2A2F08BB07300803110318013E0D
:1004B80003195F2ABC07310803110318013E031909
:1004C800662ABD07320803110318013E03196D2A75
:1004D800BE073608AF003708B0003808B100390841
:1004E800B20018300310B20CB10CB00CAF0CFF3EC8
:1004F800031D762A2F08BB07300803110318013E95
:100508000319872ABC07310803110318013E031990
:100518008E2ABD07320803110318013E0319952AD4
:10052800BE070830AF000310B60DB70DB80DB90DF2
:10053800AF0B972A3A083507AF00B001B00D2F0866
:10054800823EBF0030080318013EFF3EC000C92AA2
:100558000130AF000310BB0DBC0DBD0DBE0DAF0BC0
:10056800AE2AB91FB82AB92ABA2A3B140130AF00FB
:100578000310B60DB70DB80DB90DAF0BBC2AFF307F
:10058800BF070318C00AFF30C007BD1FCC2ACD2AF9
:10059800AC2AB501B91FD12AD22AEE2AFF30360576
:1005A800AF00FF303705B000FF303805B1007F30AD
:1005B8003905B2003208310430042F040319E52A42
:1005C800E62AE92AB501B50AEE2A3B1CEC2AED2AEF
:1005D800EE2AE62A35080319F22AF32A242B0130D9
:1005E800BB07003003180130BC0700300318013086
:1005F800BD07003003180130BE073E1C042B052B35
:10060800242B3B08AF003C08B0003D08B1003E0871
:10061800B2000130B300320DB20CB10CB00CAF0C0B
:10062800B30B0F2B3208BE003108BD003008BC00E8
:100638002F08BB000130BF070318C00A0030C007ED
:100648004008803AFF0080307F02031D2D2BFF30C9
:100658003F02031C302B312B3C2B7F3083120313BA
:10066800BE008030BD000030BC000030BB00712BE4
:10067800831203134008803AFF0080307F02031D75
:10068800472B01303F0203184A2B4B2B572B0030C6
:1006980083120313BE000030BD000030BC000030E0
:1006A800BB00B401712B831203133F08AF002F085E
:1006B800BA00FF30BB05FF30BC057F30BD050030F8
:1006C800BE053A1C682B692B6A2BBD173A08AF0088
:1006D80003102F0CB0003008BE003408AF002F08FC
:1006E800BE043E08AA003D08A9003C08A8003B0833
:1006F800A7000800831203134F08AE004E08AD0090
:100708004D08AC004C08AB004230AA00C830A90024
:100718000030A8000030A7000A128A111D200A1212
:100728008A11831203132A08C4002908C300280861
:10073800C2002708C1000A128A1516220A128A1155
:10074800831203134208D8004108D7000A30A000DA
:100758000030A1005808A3005708A2000A128A1501
:10076800DA200A128A11831203132108D200200802
:10077800D1000A30A0000030A1005808A300570893
:10078800A2000A128A1535210A128A11831203134C
:100798002108D8002008D7000A30A0000030A100A6
:1007A8005808A3005708A2000A128A15DA200A126C
:1007B8008A11831203132108D4002008D3000A30B9
:1007C800A0000030A1005808A3005708A2000A1290
:1007D8008A1535210A128A11831203132108D600BB
:1007E8002008D500A12C0730D0005008A200023004
:1007F8000A168A11B1270A128A1110300A168A11AC
:10080800D7270A128A11C62C0730D0005008A20038
:1008180002300A168A11B1270A128A1108300A16FC
:100828008A11D7270A128A11C62C0730D00050081F
:10083800A20002300A168A11B1270A128A110C3056
:100848000A168A11D7270A128A11C62C0730D00037
:100858005008A20002300A168A11B1270A128A111A
:1008680012300A168A11D7270A128A11C62C0730A5
:10087800D0005008A20002300A168A11B1270A12C5
:100888008A1114300A168A11D7270A128A11C62C1F
:100898000730D0005008A20002300A168A11B1278A
:1008A8000A128A1116300A168A11D7270A128A11D3
:1008B800C62C0730D0005008A20002300A168A1150
:1008C800B1270A128A1118300A168A11D7270A1274
:1008D8008A11C62C0730D0005008A20002300A1630
:1008E8008A11B1270A128A111A300A168A11D727D3
:1008F8000A128A11C62C0730D0005008A200023014
:100908000A168A11B1270A128A111C300A168A118E
:10091800D7270A128A11C62C0730D0005008A20027
:1009280002300A168A11B1270A128A111E300A16D5
:100938008A11D7270A128A11C62C5608003A0319B9
:10094800A62CC62C5508003A0319F72B013A0319AF
:10095800082C033A0319192C013A03192A2C073ACF
:1009680003193B2C013A03194C2C033A03195D2C4B
:10097800013A03196E2C0F3A03197F2C013A031917
:10098800902CC62C0E300A168A11D7270A128A1103
:10099800132D10300A168A11D7270A128A11802DB2
:1009A80008300A168A11D7270A128A11802D0C30AE
:1009B8000A168A11D7270A128A11802D12300A16B0
:1009C8008A11D7270A128A11802D14300A168A1123
:1009D800D7270A128A11802D16300A168A11D727AE
:1009E8000A128A11802D18300A168A11D7270A127E
:1009F8008A11802D1A300A168A11D7270A128A11ED
:100A0800802D1C300A168A11D7270A128A11802DC8
:100A18001E300A168A11D7270A128A11802D8312CE
:100A280003135408003A03191A2D802D5308003A6D
:100A38000319CD2C013A0319D42C033A0319DB2CE2
:100A4800013A0319E22C073A0319E92C013A031970
:100A5800F02C033A0319F72C013A0319FE2C0F3A2C
:100A68000319052D013A03190C2D802D10300A1693
:100A78008A11D7270A128A11A72D08300A168A1157
:100A8800D7270A128A11A72D0C300A168A11D727E0
:100A98000A128A11A72D12300A168A11D7270A12AC
:100AA8008A11A72D14300A168A11D7270A128A111B
:100AB800A72D16300A168A11D7270A128A11A72DD0
:100AC80018300A168A11D7270A128A11A72D1A3048
:100AD8000A168A11D7270A128A11A72D1C300A165E
:100AE8008A11D7270A128A11A72D1E300A168A11D1
:100AF800D7270A128A11A72D831203135208003A26
:100B08000319872DA72D5108003A03193A2D013AE8
:100B18000319412D033A0319482D013A03194F2DA2
:100B2800073A0319562D013A03195D2D033A0319A3
:100B3800642D013A03196B2D0F3A0319722D013AEE
:100B48000319792DA72D20300A168A11D7270A12E2
:100B58008A110800831203134F08AE004E08AD0037
:100B68004D08AC004C08AB004230AA00C830A900C0
:100B78000030A8000030A7000A128A111D200A12AE
:100B88008A11831203132A08C4002908C3002808FD
:100B9800C2002708C1000A128A1516220A128A11F1
:100BA800831203134208D7004108D6000A30A00078
:100BB8000030A1005708A3005608A2000A128A159F
:100BC800DA200A128A11831203132108D10020089F
:100BD800D0000A30A0000030A1005708A300560832
:100BE800A2000A128A1535210A128A1183120313E8
:100BF8002108D7002008D6000A30A0000030A10044
:100C08005708A3005608A2000A128A15DA200A1209
:100C18008A11831203132108D3002008D2000A3056
:100C2800A0000030A1005708A3005608A2000A122D
:100C38008A1535210A128A11831203132108D50057
:100C48002008D400BD2EA201A20A02300A168A1179
:100C5800B1270A128A1110300A168A11D7270A12E8
:100C68008A11E22EA201A20A02300A168A11B127BD
:100C78000A128A1108300A168A11D7270A128A110D
:100C8800E22EA201A20A02300A168A11B1270A121C
:100C98008A110C300A168A11D7270A128A11E22EF5
:100CA800A201A20A02300A168A11B1270A128A1171
:100CB80012300A168A11D7270A128A11E22EA201C7
:100CC800A20A02300A168A11B1270A128A111430B0
:100CD8000A168A11D7270A128A11E22EA201A20A3D
:100CE80002300A168A11B1270A128A1116300A161A
:100CF8008A11D7270A128A11E22EA201A20A02300B
:100D08000A168A11B1270A128A1118300A168A118E
:100D1800D7270A128A11E22EA201A20A02300A1665
:100D28008A11B1270A128A111A300A168A11D7278E
:100D38000A128A11E22EA201A20A02300A168A11A8
:100D4800B1270A128A111C300A168A11D7270A12EB
:100D58008A11E22EA201A20A02300A168A11B127CC
:100D68000A128A111E300A168A11D7270A128A1106
:100D7800E22E5508003A0319C22EE22E5408003A12
:100D88000319272E013A0319362E033A0319452E63
:100D9800013A0319542E073A0319632E013A03192D
:100DA800722E033A0319812E013A0319902E0F3A35
:100DB80003199F2E013A0319AE2EE22E0E300A16A1
:100DC8008A11D7270A128A112F2F10300A168A1172
:100DD800D7270A128A119C2F08300A168A11D7279A
:100DE8000A128A119C2F0C300A168A11D7270A1268
:100DF8008A119C2F12300A168A11D7270A128A11D3
:100E08009C2F14300A168A11D7270A128A119C2F90
:100E180016300A168A11D7270A128A119C2F183001
:100E28000A168A11D7270A128A119C2F1A300A1615
:100E38008A11D7270A128A119C2F1C300A168A1188
:100E4800D7270A128A119C2F1E300A168A11D72713
:100E58000A128A119C2F831203135308003A0319AC
:100E6800362F9C2F5208003A0319E92E013A03192C
:100E7800F02E033A0319F72E013A0319FE2E073A0A
:100E88000319052F013A03190C2F033A0319132FDD
:100E9800013A03191A2F0F3A0319212F013A03199E
:100EA800282F9C2F10300A168A11D7270A128A1168
:100EB800C32F08300A168A11D7270A128A11C32F9E
:100EC8000C300A168A11D7270A128A11C32F12303A
:100ED8000A168A11D7270A128A11C32F14300A1644
:100EE8008A11D7270A128A11C32F16300A168A11B7
:100EF800D7270A128A11C32F18300A168A11D72742
:100F08000A128A11C32F1A300A168A11D7270A1211
:100F18008A11C32F1C300A168A11D7270A128A1180
:100F2800C32F1E300A168A11D7270A128A11C32F17
:100F3800831203135108003A0319A32FC32F500833
:100F4800003A0319562F013A03195D2F033A031982
:100F5800642F013A03196B2F073A0319722F013ACC
:100F68000319792F033A0319802F013A0319872FA0
:100F78000F3A03198E2F013A0319952FC32F2030EA
:100F88000A168A11D7270A128A1108008312031336
:100F9800A600A201A3017508A000A1012008A400D1
:100FA8002108A500261CD92FDA2FE02F2408A20734
:100FB8000318A30A2508A30701300310A40DA50DE3
:100FC800FF3E031DE12F0310A60C2608031DED2F7D
:100FD800EE2FD62F2308F6002208F5000800F500AA
:100FE80083160313981CF92FFA2FF42F7508831210
:060FF8000313990008003C
:1010040083120313A000881020080A128A155C209A
:101014000A128A15831203130814C730F600122823
:10102400F60B112815281628831203130810C7304D
:10103400F6001C28F60B1B281F2820280800143053
:1010440083120313A3007930A200A20B2728A30B59
:10105400272830300A168A118D270A128A15303053
:101064000A128A1502200A128A1530300A128A15C9
:1010740002200A128A1538300A168A118D270A129C
:101084008A1510300A168A1145270A128A1501306A
:101094000A168A1145270A128A1506300A168A1179
:1010A40045270A128A150C300A168A1145270A1296
:1010B4008A150800F500751C6028612865288312CC
:1010C400031305146828831203130510F51C6B28F9
:1010D4006C286E2885146F288510751D7228732856
:1010E4007528051576280511F51D79287A287C2898
:1010F40085157D288511751E80288128832805166D
:1011040084280512F51E872888288A2885168B28A6
:101114008512751F8E288F2891280517922805138C
:10112400F51F95289628982885179928851308006F
:10113400831203130C1F9F28A028C9280C13B72857
:101144001E08F0007008E8001F08C33930389F00FB
:10115400F801F80AC7281E08F0007008E7001F0805
:10116400C33934389F00F801C7287808F000F1012A
:101174007108003A0319BF28C7287008003A0319F8
:10118400A228013A0319AD28C7289F14D1280C1EA0
:10119400CC28CD28D028F701F70AD12800007408FC
:1011A4008A0073088400720E8300FE0E7E0E09000E
:1011B40083120313A501A31FE028E128E828A2094C
:1011C400A309A20A0319A30AA501A50AA11FEB28D2
:1011D400EC28F128A009A109A00A0319A10A2008F2
:1011E40021040319F628F7282629A401A40A0529AD
:1011F40001300310A00DA10DFF3E031DFB2801309B
:10120400F5007508A407A11F08290929FA2821084F
:101214002302031D0F2920082202031C122913296B
:1012240019292008A2022108031CA303A3020130E8
:101234000310A10CA00CFF3E031D1A290130A402C7
:10124400031D252926290929250803192A292B29BB
:101254003029A209A309A20A0319A30A2308A10099
:101264002208A000080083120313A501A11F3B2933
:101274003C294329A009A109A00A0319A10AA5012F
:10128400A50AA31F462947295029A209A309A20A8E
:101294000319A30A0130F5007508A506A601A701E4
:1012A400200821040319572958298F29A401A40AC5
:1012B400662901300310A00DA10DFF3E031D5C291A
:1012C4000130F5007508A407A11F69296A295B2963
:1012D40001300310A60DA70DFF3E031D6B29210845
:1012E4002302031D772920082202031C7A297B2963
:1012F40082292008A2022108031CA303A3022614A6
:1013040001300310A10CA00CFF3E031D8329013002
:10131400A402031D8E298F296A29250803199329FC
:1013240094299929A609A709A60A0319A70A27082F
:10133400A1002608A000080083120313A00083164E
:1013440003139F01D529C1309F000E2AC5309F0089
:101354000E2AC9309F000E2ACD309F000E2AD130AC
:101364009F000E2AD5309F000E2AD9309F000E2AE6
:10137400DD309F000E2AE1309F000E2AE5309F00E9
:101384000E2AE9309F000E2AED309F000E2AF1301C
:101394009F000E2AF5309F000E2AF9309F000E2A76
:1013A400FD309F000E2A831203132008F500F60176
:1013B4007608003A0319DF29A5297508013A0319AB
:1013C400A829033A0319AB29013A0319AE29073AAC
:1013D4000319B129013A0319B429033A0319B729A6
:1013E400013A0319BA290F3A0319BD29013A03191D
:1013F400C029033A0319C329013A0319C629073A34
:101404000319C929013A0319CC29033A0319CF292D
:10141400013A0319D229A529831603130C17831241
:1014240003130C139F140800031083120313430DBA
:10143400440DC5004508CB004B08031D222A232A6E
:101444002C2A0030C4000030C3000030C200003039
:10145400C100912A4108C5004208C6004308C700DC
:101464004408C8001F300310C80CC70CC60CC50CB8
:10147400FF3E031D352A4508C9004908CA00C317A1
:10148400FF30C105FF30C205FF30C3050030C4057D
:101494009630CB02CB1F4F2A502A6A2A4B08803A37
:1014A400973E0318562A572A582A232A0130031034
:1014B400C40CC30CC20CC10CFF3E031D592A0130DD
:1014C400C5004508CB07031D682A692A582A812AC2
:1014D40020304B02031C6F2A702A7C2A232A0130F5
:1014E400C5000310C10DC20DC30DC40DC50B732A75
:1014F4000130CB024B08031D802A812A712A4A0835
:101504000319852A862A912AC109C209C309C40973
:10151400C10A0319C20A0319C30A0319C40A080039
:1015240083120313A80028080319992A9A2AAE2AB9
:10153400A31F9D2A9E2AAE2A2009AA002109AB00D6
:101544002209AC002309AD00AA0A0319AB0A031946
:10155400AC0A0319AD0AB62A2308AD002208AC0070
:101564002108AB002008AA00230822042104200437
:10157400031DBD2ABE2AC72A0030A3000030A200E2
:101584000030A1000030A0004D2B9630A4002408A8
:10159400A900D92A0130A4002408A90701300310A6
:1015A400AD0CAC0CAB0CAA0CFF3E031DD12AFE30D3
:1015B4002D05031DDE2ADF2ACC2AFB2A0130A400D4
:1015C4002408A9070130AA07003003180130AB072B
:1015D400003003180130AC07003003180130AD07A8
:1015E40001300310AD0CAC0CAB0CAA0CFF3E031D78
:1015F400F32AFF302D05031D002B012BE02A0D2BB0
:101604000130A9020130A4000310AA0DAB0DAC0DEA
:10161400AD0DA40B062BAC1B102B112B172B02307A
:1016240029020318162B172B022B29181A2B1B2BF4
:10163400232BFF30AA05FF30AB057F30AC05FF300C
:10164400AD050310A90C2908A400A501A601A70152
:1016540018300310A40DA50DA60DA70DFF3E031D04
:101664002B2B2408AA042508AB042608AC0427085D
:10167400AD04280803193F2B402B452BA31F432BF4
:10168400442B452BAD172D08A3002C08A2002B08D2
:10169400A1002A08A0000800213083160313860045
:1016A40083160317880114308900831603138501F8
:1016B40088019F171F129F12C130831203139F00CA
:1016C400C0308B000A128A1521200A128A150D30A7
:1016D4000A128A159E210A128A150A168A112227CD
:1016E4000A128A15023083120313D9005908A20082
:1016F40001300A168A11B1270A128A1506300A1611
:101704008A11D7270A128A15083083120313D900C5
:101714005908A20001300A168A11B1270A128A1543
:101724000A300A168A11D7270A128A150D30831235
:101734000313D9005908A20001300A168A11B127EF
:101744000A128A1501300A168A11D7270A128A1535
:101754008312031368080A128A11F3270A128A15DE
:101764008312031367080A128A11F3270A128A15CF
:10177400423083120313B1004C30B0000030AF008C
:101784000030AE006808D900DA01DB01DC015C0836
:10179400A3005B08A2005A08A1005908A000013068
:1017A4000A128A1592220A128A1583120313230835
:1017B400B5002208B4002108B3002008B2000A12C0
:1017C4008A1523260A128A15831203133108E000AE
:1017D4003008DF002F08DE002E08DD004230B100A3
:1017E4004C30B0000030AF000030AE006708D900C4
:1017F400DA01DB01DC015C08A3005B08A2005A08E3
:10180400A1005908A00001300A128A1592220A1276
:101814008A15831203132308B5002208B400210893
:10182400B3002008B2000A128A1523260A128A1568
:10183400831203133108E4003008E3002F08E200A8
:101844002E08E1006008CF005F08CE005E08CD00DE
:101854005D08CC000A128A11AE250A128A15831279
:1018640003136408CF006308CE006208CD0061084A
:10187400CC000A128A117E230A128A150A168A11CA
:101884000B270A128A15003A0319492C4A2C562CA4
:101894000A168A1111270A128A1583120313D90012
:1018A4005908E5001816572C00002B308312031337
:1018B4006506031D5E2C5F2C652C0130D900590888
:1018C400E607E5016F2C2D306506031D6A2C6B2C91
:1018D4006E2C0130E602632C0000831203136608A9
:1018E4000A128A157B240A128A15AA2B0A128A1153
:1018F4000E2883120313B0000A30A0000030A100A8
:101904003008A800A9012808A2002908A3000A1287
:101914008A15DA200A128A15831203132108AF00EC
:101924002008AE000A30A0000030A1003008A80052
:10193400A9012808A2002908A3000A128A15352142
:101944000A128A15831203132108B2002008B10079
:101954000A30A0000030A1003208A3003108A20020
:101964000A128A15DA200A128A158312031321082F
:10197400AD002008AC000A30A0000030A1003208FD
:10198400A3003108A2000A128A1535210A128A1509
:10199400831203132108AB002008AA000D30A8000D
:1019A4002808A20002300A168A11B1270A128A15E1
:1019B400212D10300A168A11D7270A128A158E2D66
:1019C40008300A168A11D7270A128A158E2D0C3070
:1019D4000A168A11D7270A128A158E2D12300A1672
:1019E4008A11D7270A128A158E2D14300A168A11E5
:1019F400D7270A128A158E2D16300A168A11D72770
:101A04000A128A158E2D18300A168A11D7270A123F
:101A14008A158E2D1A300A168A11D7270A128A15AA
:101A24008E2D1C300A168A11D7270A128A158E2D7C
:101A34001E300A168A11D7270A128A158E2D831290
:101A440003132B08003A0319282D8E2D2A08003A77
:101A54000319DB2C013A0319E22C033A0319E92C8C
:101A6400013A0319F02C073A0319F72C013A031928
:101A7400FE2C033A0319052D013A03190C2D0F3AD4
:101A84000319132D013A03191A2D8E2D10300A163D
:101A94008A11D7270A128A15FB2D08300A168A11D3
:101AA400D7270A128A15FB2D0C300A168A11D7275C
:101AB4000A128A15FB2D12300A168A11D7270A1228
:101AC4008A15FB2D14300A168A11D7270A128A1593
:101AD400FB2D16300A168A11D7270A128A15FB2DF8
:101AE40018300A168A11D7270A128A15FB2D1A30C4
:101AF4000A168A11D7270A128A15FB2D1C300A16DA
:101B04008A11D7270A128A15FB2D1E300A168A114C
:101B1400D7270A128A15FB2D831203132D08003AC6
:101B24000319952DFB2D2C08003A0319482D013A71
:101B340003194F2D033A0319562D013A03195D2D4C
:101B4400073A0319642D013A03196B2D033A03195B
:101B5400722D013A0319792D0F3A0319802D013A98
:101B64000319872DFB2D10300A168A11D7270A1264
:101B74008A15222E08300A168A11D7270A128A15C6
:101B8400222E0C300A168A11D7270A128A15222E01
:101B940012300A168A11D7270A128A15222E1430F7
:101BA4000A168A11D7270A128A15222E16300A1607
:101BB4008A11D7270A128A15222E18300A168A117A
:101BC400D7270A128A15222E1A300A168A11D72705
:101BD4000A128A15222E1C300A168A11D7270A12D5
:101BE4008A15222E1E300A168A11D7270A128A1540
:101BF400222E831203132F08003A0319022E222ED9
:101C04002E08003A0319B52D013A0319BC2D033AE5
:101C14000319C32D013A0319CA2D073A0319D12D0B
:101C2400013A0319D82D033A0319DF2D013A031998
:101C3400E62D0F3A0319ED2D013A0319F42D222E46
:101C440008008312031335088039B6003608BF0034
:101C54003508B6003607B7003708C600B41F332E60
:101C6400342E352E461446080319392E3A2E4A2EA0
:101C7400460A031D3E2E3F2E472E0030B50000308D
:101C8400B4000030B3000030B200B417B501522ED6
:101C94000030B5000030B4000030B3000030B200B2
:101CA40031088039B6003608BF063108B600360759
:101CB400B7003708C700B01F602E612E622E47148C
:101CC40047080319662E672E772E470A031D6B2ECD
:101CD4006C2E742E0030B1000030B0000030AF0024
:101CE4000030AE00B017B1017F2E0030B1000030DB
:101CF400B0000030AF000030AE00310830042F04D3
:101D04002E04031D862E872EA02E0030B500003031
:101D1400B4000030B3000030B2008030B4047F302F
:101D2400B5043F08B6003608B5043508B1003408D8
:101D3400B0003308AF003208AE00FF2F4608031D81
:101D4400A42EA52EAE2E0030B1000030B00000301D
:101D5400AF000030AE00FF2F4608B600B7013708C9
:101D6400B90047083602B800031CB90338087F3E9F
:101D7400C00039080318013E003EC1003508BE000A
:101D84003408BD003308BC003208BB000030B50085
:101D94000030B4000030B3000030B2000030C500A1
:101DA4000030C4000030C3000030C200C701242F3B
:101DB40047080319DE2EDF2EFF2E0130B600031074
:101DC400BB0DBC0DBD0DBE0DB60BE12E0130B60032
:101DD4000310B20DB30DB40DB50DB60BEA2EC51F2D
:101DE400F42EF52EF62E32140130B6000310C20D77
:101DF400C30DC40DC50DB60BF82E31083E02031DEC
:101E04000D2F30083D02031D0D2F2F083C02031D2A
:101E14000D2F2E083B02031C102F112F202F4517C6
:101E24002E08BB022F08031C2F0FBC023008031C12
:101E3400300FBD023108031C310FBE020130B60061
:101E44003608C7071A304702031C292F2A2FDA2E17
:101E54003E083D043C043B040319312F322F512F1B
:101E64004214512F0130B6000310B20DB30DB40D5E
:101E7400B50DB60B362FC51F402F412F422F3214FC
:101E84000130B6000310C20DC30DC40DC50DB60B51
:101E9400442FFF30C0070318C10AFF30C107B41F25
:101EA400542F552F342FC701C51F592F5A2F762F62
:101EB400FF304205B600FF304305B700FF3044054C
:101EC400B8007F304505B9003908380437043604B2
:101ED40003196D2F6E2F712FC701C70A762F321C7D
:101EE400742F752F762F6E2F470803197A2F7B2FA7
:101EF400AC2F0130B207003003180130B3070030B3
:101F040003180130B407003003180130B507351C3D
:101F14008C2F8D2FAC2F3208B6003308B70034084D
:101F2400B8003508B9000130BA00390DB90CB80C45
:101F3400B70CB60CBA0B972F3908B5003808B400A3
:101F44003708B3003608B2000130C0070318C10ACD
:101F54000030C1074108803AFF0080307F02031D32
:101F6400B52FFF304002031CB82FB92FC72FFF3005
:101F740083120313C0000030C1000030B5000030EC
:101F8400B4000030B3000030B200831203134108E0
:101F9400803AFF0080307F02031DD22F01304002BF
:101FA4000318D52FD62FE32F83120313C001C101C9
:101FB4000030B5000030B4000030B3000030B2008F
:101FC400BF01831203134008B6003608C600461C3E
:101FD400EC2FED2FEF2FB417F32F7F30B600360818
:101FE400B4054608B6000310360CB7003708B50030
:101FF4003F08B6003608B504972E080010308A0052
:102004000408840A8207003443344F344E34543471
:102014000034533450343134003453345034323473
:1020240000342E3400343034003433340034343447
:102034000034353400343634003437340034383422
:0A20440000343934003456340034FF
:102E16000030831203138C1A01300800132F0000B0
:102E2600831203138C1E182F192F122F1A08F50060
:102E3600F6017508A0007608A100200808001930E0
:102E460083160313990083160317071287110710B9
:102E560083160313181383120313981718131816DF
:102E66008316031318151812831203139817831663
:102E760003138717071783120313181683160313F2
:102E860098160800F60083120313881076080A12B3
:102E96008A155C200A168A11831203130814063059
:102EA60083120313A1002F30A000A00B582FA10BF3
:102EB600582F5D2F831203130810C7308312031394
:102EC600A000652FA00B642F682F0800F600831260
:102ED6000313881476080A128A155C200A168A11CA
:102EE600831203130814063083120313A1002F3034
:102EF600A000A00B7C2FA10B7C2F812F8312031324
:102F06000810C73083120313A000892FA00B882F47
:102F16008C2F0800F60083120313881076080A1215
:102F26008A155C200A168A118312031308140730C7
:102F360083120313A1007C30A000A00BA02FA10BCD
:102F4600A02F0000831203130810C7308312031347
:102F5600A000AD2FA00BAC2FB02F080083120313D7
:102F6600A4002403031DB82FB92FC52F22087F3EC6
:102F7600A3002308A50025080A168A1145270A1664
:102F86008A11D62F02302406031DCA2FCB2FD62F27
:102F96002208BF3EA3002308A50025080A168A11A9
:102FA60045270A168A11080083120313A400A201FA
:102FB600A301F22F2208240784000A168A11002092
:102FC6000A168A110A168A1169270A168A11013009
:102FD60083120313A2070318A30A0030A3072208CB
:102FE600240784000A168A1100200A168A11003A5C
:0A2FF600031DFE2FFF2FDD2F080042
:04400E00D4E0FFFFFC
:00000001FF
